{"contracts/Presale.sol":{"Presale":{"abi":[{"inputs":[{"internalType":"address[]","name":"_receivers","type":"address[]"},{"internalType":"uint16[]","name":"_ratios","type":"uint16[]"},{"internalType":"uint256","name":"_presaleRatio","type":"uint256"},{"internalType":"uint256","name":"_unlockDate","type":"uint256"}],"stateMutability":"nonpayable","type":"constructor"},{"anonymous":false,"inputs":[{"indexed":true,"internalType":"address","name":"buyer","type":"address"},{"indexed":false,"internalType":"uint256","name":"value","type":"uint256"}],"name":"Bought","type":"event"},{"anonymous":false,"inputs":[{"indexed":true,"internalType":"address","name":"claimer","type":"address"},{"indexed":false,"internalType":"uint256","name":"amount","type":"uint256"}],"name":"Claimed","type":"event"},{"anonymous":false,"inputs":[{"indexed":true,"internalType":"address","name":"previousOwner","type":"address"},{"indexed":true,"internalType":"address","name":"newOwner","type":"address"}],"name":"OwnershipTransferred","type":"event"},{"anonymous":false,"inputs":[{"indexed":false,"internalType":"address[]","name":"receivers","type":"address[]"},{"indexed":false,"internalType":"uint16[]","name":"ratios","type":"uint16[]"},{"indexed":false,"internalType":"uint256","name":"presaleRatio","type":"uint256"}],"name":"RatioUpdated","type":"event"},{"anonymous":false,"inputs":[{"indexed":true,"internalType":"uint256","name":"oldStatus","type":"uint256"},{"indexed":true,"internalType":"uint256","name":"newStatus","type":"uint256"}],"name":"StatusUpdated","type":"event"},{"inputs":[],"name":"buyWithETH","outputs":[],"stateMutability":"payable","type":"function"},{"inputs":[{"internalType":"uint256","name":"_amount","type":"uint256"}],"name":"buyWithToken","outputs":[],"stateMutability":"nonpayable","type":"function"},{"inputs":[],"name":"claim","outputs":[],"stateMutability":"nonpayable","type":"function"},{"inputs":[{"internalType":"address","name":"_investor","type":"address"}],"name":"getInvestor","outputs":[{"internalType":"uint256","name":"value","type":"uint256"},{"internalType":"bool","name":"isInvest","type":"bool"},{"internalType":"bool","name":"isClaimed","type":"bool"}],"stateMutability":"view","type":"function"},{"inputs":[],"name":"getInvestorList","outputs":[{"internalType":"address[]","name":"","type":"address[]"}],"stateMutability":"view","type":"function"},{"inputs":[],"name":"lockRatio","outputs":[{"internalType":"uint16","name":"","type":"uint16"}],"stateMutability":"view","type":"function"},{"inputs":[],"name":"owner","outputs":[{"internalType":"address","name":"","type":"address"}],"stateMutability":"view","type":"function"},{"inputs":[],"name":"pancakeRouter","outputs":[{"internalType":"contract IPancakeRouter02","name":"","type":"address"}],"stateMutability":"view","type":"function"},{"inputs":[],"name":"presaleRatio","outputs":[{"internalType":"uint256","name":"","type":"uint256"}],"stateMutability":"view","type":"function"},{"inputs":[],"name":"presaleToken","outputs":[{"internalType":"address","name":"","type":"address"}],"stateMutability":"view","type":"function"},{"inputs":[{"internalType":"uint256","name":"","type":"uint256"}],"name":"receivers","outputs":[{"internalType":"address","name":"","type":"address"}],"stateMutability":"view","type":"function"},{"inputs":[{"internalType":"address","name":"","type":"address"}],"name":"receiversRatio","outputs":[{"internalType":"uint16","name":"","type":"uint16"}],"stateMutability":"view","type":"function"},{"inputs":[],"name":"renounceOwnership","outputs":[],"stateMutability":"nonpayable","type":"function"},{"inputs":[],"name":"status","outputs":[{"internalType":"enum Presale.Status","name":"","type":"uint8"}],"stateMutability":"view","type":"function"},{"inputs":[{"internalType":"address","name":"newOwner","type":"address"}],"name":"transferOwnership","outputs":[],"stateMutability":"nonpayable","type":"function"},{"inputs":[{"internalType":"address","name":"to","type":"address"}],"name":"unlock","outputs":[],"stateMutability":"nonpayable","type":"function"},{"inputs":[{"internalType":"address[]","name":"_receivers","type":"address[]"},{"internalType":"uint16[]","name":"_ratios","type":"uint16[]"},{"internalType":"uint256","name":"_presaleRatio","type":"uint256"}],"name":"updateRatio","outputs":[],"stateMutability":"nonpayable","type":"function"},{"inputs":[{"internalType":"uint256","name":"_status","type":"uint256"}],"name":"updateStatus","outputs":[],"stateMutability":"nonpayable","type":"function"}],"evm":{"bytecode":{"linkReferences":{},"object":"60806040523480156200001157600080fd5b50604051620022ba380380620022ba833981016040819052620000349162000416565b6200003f3362000251565b8251845114620000a05760405162461bcd60e51b815260206004820152602160248201527f6e6f742073616d6520726563656976657220616e6420726174696f20636f756e6044820152601d60fa1b60648201526084015b60405180910390fd5b60008211620000f25760405162461bcd60e51b815260206004820152601e60248201527f526174696f2073686f756c642062652067726561746572207468616e20300000604482015260640162000097565b835162000107906001906020870190620002a1565b506000805b8551811015620001cf578481815181106200012b576200012b62000504565b6020026020010151600260008884815181106200014c576200014c62000504565b60200260200101516001600160a01b03166001600160a01b0316815260200190815260200160002060006101000a81548161ffff021916908361ffff160217905550848181518110620001a357620001a362000504565b602002602001015182620001b8919062000530565b915080620001c68162000555565b9150506200010c565b50620001de816103e862000571565b6003805461ffff191661ffff929092169190911790556004839055600a805460ff19169055600b8290556040517fb8ffa35fabf870464b1f28ac36f392a134db3fb2c6e2ee2f022c5a49e242bac0906200023e908790879087906200058f565b60405180910390a1505050505062000624565b600080546001600160a01b038381166001600160a01b0319831681178455604051919092169283917f8be0079c531659141344cd1fd0a4f28419497f9722a3daafe3b4186f6b6457e09190a35050565b828054828255906000526020600020908101928215620002f9579160200282015b82811115620002f957825182546001600160a01b0319166001600160a01b03909116178255602090920191600190910190620002c2565b50620003079291506200030b565b5090565b5b808211156200030757600081556001016200030c565b634e487b7160e01b600052604160045260246000fd5b604051601f8201601f191681016001600160401b038111828210171562000363576200036362000322565b604052919050565b60006001600160401b0382111562000387576200038762000322565b5060051b60200190565b600082601f830112620003a357600080fd5b81516020620003bc620003b6836200036b565b62000338565b82815260059290921b84018101918181019086841115620003dc57600080fd5b8286015b848110156200040b57805161ffff81168114620003fd5760008081fd5b8352918301918301620003e0565b509695505050505050565b600080600080608085870312156200042d57600080fd5b84516001600160401b03808211156200044557600080fd5b818701915087601f8301126200045a57600080fd5b815160206200046d620003b6836200036b565b82815260059290921b8401810191818101908b8411156200048d57600080fd5b948201945b83861015620004c45785516001600160a01b0381168114620004b45760008081fd5b8252948201949082019062000492565b918a0151919850909350505080821115620004de57600080fd5b50620004ed8782880162000391565b604087015160609097015195989097509350505050565b634e487b7160e01b600052603260045260246000fd5b634e487b7160e01b600052601160045260246000fd5b61ffff8181168382160190808211156200054e576200054e6200051a565b5092915050565b6000600182016200056a576200056a6200051a565b5060010190565b61ffff8281168282160390808211156200054e576200054e6200051a565b606080825284519082018190526000906020906080840190828801845b82811015620005d35781516001600160a01b031684529284019290840190600101620005ac565b5050508381038285015285518082528683019183019060005b818110156200060e57835161ffff1683529284019291840191600101620005ec565b5050809350505050826040830152949350505050565b611c8680620006346000396000f3fe6080604052600436106100d95760003560e01c8063150d283d146100de578063200d2ed2146100e857806324ffea1a146101185780632f6c493c1461014d5780634e71d92d1461016d578063580433f31461018257806364cdb69e146101a6578063715018a6146101c85780638da5cb5b146101dd5780638f35a75e146101f25780639c3709ea1461022f578063ac74b42d1461025d578063bfd772fc1461027d578063c21ebd071461029d578063cc3a2f05146102c5578063d61e7201146102f6578063dd31483214610316578063f2fde38b14610336575b600080fd5b6100e6610356565b005b3480156100f457600080fd5b50600a546101029060ff1681565b60405161010f91906115e3565b60405180910390f35b34801561012457600080fd5b5061014073dac17f958d2ee523a2206206994597c13d831ec781565b60405161010f919061160b565b34801561015957600080fd5b506100e6610168366004611634565b6106f3565b34801561017957600080fd5b506100e661087c565b34801561018e57600080fd5b5061019860045481565b60405190815260200161010f565b3480156101b257600080fd5b506101bb6109db565b60405161010f919061169c565b3480156101d457600080fd5b506100e66109ec565b3480156101e957600080fd5b50610140610a00565b3480156101fe57600080fd5b5061021261020d366004611634565b610a0f565b60408051938452911515602084015215159082015260600161010f565b34801561023b57600080fd5b5060035461024a9061ffff1681565b60405161ffff909116815260200161010f565b34801561026957600080fd5b506100e66102783660046116af565b610a2b565b34801561028957600080fd5b506101406102983660046116af565b610bc0565b3480156102a957600080fd5b50610140739ac64cc6e4415144c455bd8e4837fea55603e5c381565b3480156102d157600080fd5b5061024a6102e0366004611634565b60026020526000908152604090205461ffff1681565b34801561030257600080fd5b506100e66103113660046116af565b610bea565b34801561032257600080fd5b506100e66103313660046117ad565b610cce565b34801561034257600080fd5b506100e6610351366004611634565b610e71565b6001600a5460ff16600381111561036f5761036f6115cd565b146103955760405162461bcd60e51b815260040161038c90611877565b60405180910390fd5b600034116103a257600080fd5b604080516002808252606082018352600092602083019080368337019050509050739ac64cc6e4415144c455bd8e4837fea55603e5c36001600160a01b031663ad5c46486040518163ffffffff1660e01b8152600401602060405180830381865afa158015610415573d6000803e3d6000fd5b505050506040513d601f19601f820116820180604052508101906104399190611899565b8160008151811061044c5761044c6118b6565b60200260200101906001600160a01b031690816001600160a01b03168152505073dac17f958d2ee523a2206206994597c13d831ec781600181518110610494576104946118b6565b6001600160a01b039092166020928302919091019091015260405163d06ca61f60e01b8152600090739ac64cc6e4415144c455bd8e4837fea55603e5c39063d06ca61f906104e890349086906004016118cc565b600060405180830381865afa158015610505573d6000803e3d6000fd5b505050506040513d6000823e601f3d908101601f1916820160405261052d91908101906118e5565b905060005b6001548110156106615760006002600060018481548110610555576105556118b6565b60009182526020808320909101546001600160a01b0316835282019290925260400190205461ffff16111561064f57600060018281548110610599576105996118b6565b6000918252602082200154600180546001600160a01b03909216926103e89260029290879081106105cc576105cc6118b6565b60009182526020808320909101546001600160a01b031683528201929092526040019020546105ff9061ffff1634611980565b610609919061199d565b604051600081818185875af1925050503d8060008114610645576040519150601f19603f3d011682016040523d82523d6000602084013e61064a565b606091505b505050505b80610659816119bf565b915050610532565b506106923382600181518110610679576106796118b6565b60200260200101516005610eea9092919063ffffffff16565b336001600160a01b03167fc55650ccda1011e1cdc769b1fbf546ebb8c97800b6072b49e06cd560305b1d67826001815181106106d0576106d06118b6565b60200260200101516040516106e791815260200190565b60405180910390a25050565b6106fb610fcf565b42600b541061074b5760405162461bcd60e51b815260206004820152601c60248201527b4c6f636b20706572696f64206973206e6f74206f766572207965742160201b604482015260640161038c565b6040516370a0823160e01b81526107e590829073dac17f958d2ee523a2206206994597c13d831ec7906370a082319061078890309060040161160b565b602060405180830381865afa1580156107a5573d6000803e3d6000fd5b505050506040513d601f19601f820116820180604052508101906107c991906119d8565b73dac17f958d2ee523a2206206994597c13d831ec7919061102e565b6000816001600160a01b03164760405160006040518083038185875af1925050503d8060008114610832576040519150601f19603f3d011682016040523d82523d6000602084013e610837565b606091505b50509050806108785760405162461bcd60e51b815260206004820152600d60248201526c1499599d5b990811985a5b1959609a1b604482015260640161038c565b5050565b6003600a5460ff166003811115610895576108956115cd565b146108d25760405162461bcd60e51b815260206004820152600d60248201526c6e6f7420636c61696d61626c6560981b604482015260640161038c565b60006108df600533611091565b50509050600073dac17f958d2ee523a2206206994597c13d831ec76001600160a01b031663313ce5676040518163ffffffff1660e01b8152600401602060405180830381865afa158015610937573d6000803e3d6000fd5b505050506040513d601f19601f8201168201806040525081019061095b91906119f1565b61096690600a611af8565b6004546109739084611980565b61097d919061199d565b905061099e73dac17f958d2ee523a2206206994597c13d831ec7338361102e565b6109a96005336110d2565b60405181815233907fd8138f8a3f377c5259ca548e70e4c2de94f129f5a11036a15b69513cba2b426a906020016106e7565b60606109e760056111fd565b905090565b6109f4610fcf565b6109fe6000611263565b565b6000546001600160a01b031690565b60008080610a1e600585611091565b9196909550909350915050565b6001600a5460ff166003811115610a4457610a446115cd565b14610a615760405162461bcd60e51b815260040161038c90611877565b60008111610a6e57600080fd5b610a8e73dac17f958d2ee523a2206206994597c13d831ec73330846112b3565b60005b600154811015610b7b5760006002600060018481548110610ab457610ab46118b6565b60009182526020808320909101546001600160a01b0316835282019290925260400190205461ffff161115610b6957610b6960018281548110610af957610af96118b6565b6000918252602082200154600180546001600160a01b03909216926103e8926002929087908110610b2c57610b2c6118b6565b60009182526020808320909101546001600160a01b03168352820192909252604001902054610b5f9061ffff1686611980565b6107c9919061199d565b80610b73816119bf565b915050610a91565b50610b8860053383610eea565b60405181815233907fc55650ccda1011e1cdc769b1fbf546ebb8c97800b6072b49e06cd560305b1d679060200160405180910390a250565b60018181548110610bd057600080fd5b6000918252602090912001546001600160a01b0316905081565b610bf2610fcf565b600a5460ff166003811115610c0957610c096115cd565b81118015610c175750600481105b610c565760405162461bcd60e51b815260206004820152601060248201526f696e636f72726563742073746174757360801b604482015260640161038c565b600a54819060ff166003811115610c6f57610c6f6115cd565b6040517f150b944d2f668fb8c44fa57a4dd1c95f72d46a1efea6a92a497a002cf491f47b90600090a3806003811115610caa57610caa6115cd565b600a805460ff19166001836003811115610cc657610cc66115cd565b021790555050565b610cd6610fcf565b8151835114610d315760405162461bcd60e51b815260206004820152602160248201527f6e6f742073616d6520726563656976657220616e6420726174696f20636f756e6044820152601d60fa1b606482015260840161038c565b8251610d44906001906020860190611553565b506000805b8451811015610dfd57838181518110610d6457610d646118b6565b602002602001015160026000878481518110610d8257610d826118b6565b60200260200101516001600160a01b03166001600160a01b0316815260200190815260200160002060006101000a81548161ffff021916908361ffff160217905550838181518110610dd657610dd66118b6565b602002602001015182610de99190611b07565b915080610df5816119bf565b915050610d49565b50610e0a816103e8611b29565b6003805461ffff191661ffff929092169190911790556004829055600a805460ff191690556040517fb8ffa35fabf870464b1f28ac36f392a134db3fb2c6e2ee2f022c5a49e242bac090610e6390869086908690611b44565b60405180910390a150505050565b610e79610fcf565b6001600160a01b038116610ede5760405162461bcd60e51b815260206004820152602660248201527f4f776e61626c653a206e6577206f776e657220697320746865207a65726f206160448201526564647265737360d01b606482015260840161038c565b610ee781611263565b50565b6001600160a01b038216600090815260038401602052604090205460ff1615610f42576001600160a01b038216600090815260018401602052604081208054839290610f37908490611ba8565b90915550610fca9050565b6001600160a01b03821660009081526003840160209081526040808320805460ff19166001908117909155860190915281208054839290610f84908490611ba8565b909155505082546001600160a01b038316600081815260028601602090815260408220849055600184018755868252902090910180546001600160a01b03191690911790555b505050565b33610fd8610a00565b6001600160a01b0316146109fe5760405162461bcd60e51b815260206004820181905260248201527f4f776e61626c653a2063616c6c6572206973206e6f7420746865206f776e6572604482015260640161038c565b6040516001600160a01b038316602482015260448101829052610fca90849063a9059cbb60e01b906064015b60408051601f198184030181529190526020810180516001600160e01b03166001600160e01b0319909316929092179091526112f1565b6001600160a01b0316600090815260018201602090815260408083205460038501835281842054600490950190925290912054909260ff9283169290911690565b6001600160a01b038116600090815260038301602052604090205460ff166111285760405162461bcd60e51b81526020600482015260096024820152681b9bc81a5b9d995cdd60ba1b604482015260640161038c565b6001600160a01b038116600090815260048301602052604090205460ff16156111855760405162461bcd60e51b815260206004820152600f60248201526e185b1c9958591e4818db185a5b5959608a1b604482015260640161038c565b6001600160a01b03811660009081526001830160205260409020546111d65760405162461bcd60e51b8152602060048201526007602482015266076616c75653e360cc1b604482015260640161038c565b6001600160a01b03166000908152600490910160205260409020805460ff19166001179055565b60608160000180548060200260200160405190810160405280929190818152602001828054801561125757602002820191906000526020600020905b81546001600160a01b03168152600190910190602001808311611239575b50505050509050919050565b600080546001600160a01b038381166001600160a01b0319831681178455604051919092169283917f8be0079c531659141344cd1fd0a4f28419497f9722a3daafe3b4186f6b6457e09190a35050565b6040516001600160a01b03808516602483015283166044820152606481018290526112eb9085906323b872dd60e01b9060840161105a565b50505050565b6000611346826040518060400160405280602081526020017f5361666545524332303a206c6f772d6c6576656c2063616c6c206661696c6564815250856001600160a01b03166113c39092919063ffffffff16565b805190915015610fca57808060200190518101906113649190611bbb565b610fca5760405162461bcd60e51b815260206004820152602a60248201527f5361666545524332303a204552433230206f7065726174696f6e20646964206e6044820152691bdd081cdd58d8d9595960b21b606482015260840161038c565b60606113d284846000856113da565b949350505050565b60608247101561143b5760405162461bcd60e51b815260206004820152602660248201527f416464726573733a20696e73756666696369656e742062616c616e636520666f6044820152651c8818d85b1b60d21b606482015260840161038c565b600080866001600160a01b031685876040516114579190611c01565b60006040518083038185875af1925050503d8060008114611494576040519150601f19603f3d011682016040523d82523d6000602084013e611499565b606091505b50915091506114aa878383876114b5565b979650505050505050565b6060831561152457825160000361151d576001600160a01b0385163b61151d5760405162461bcd60e51b815260206004820152601d60248201527f416464726573733a2063616c6c20746f206e6f6e2d636f6e7472616374000000604482015260640161038c565b50816113d2565b6113d283838151156115395781518083602001fd5b8060405162461bcd60e51b815260040161038c9190611c1d565b8280548282559060005260206000209081019282156115a8579160200282015b828111156115a857825182546001600160a01b0319166001600160a01b03909116178255602090920191600190910190611573565b506115b49291506115b8565b5090565b5b808211156115b457600081556001016115b9565b634e487b7160e01b600052602160045260246000fd5b602081016004831061160557634e487b7160e01b600052602160045260246000fd5b91905290565b6001600160a01b0391909116815260200190565b6001600160a01b0381168114610ee757600080fd5b60006020828403121561164657600080fd5b81356116518161161f565b9392505050565b600081518084526020808501945080840160005b838110156116915781516001600160a01b03168752958201959082019060010161166c565b509495945050505050565b6020815260006116516020830184611658565b6000602082840312156116c157600080fd5b5035919050565b634e487b7160e01b600052604160045260246000fd5b604051601f8201601f191681016001600160401b0381118282101715611706576117066116c8565b604052919050565b60006001600160401b03821115611727576117276116c8565b5060051b60200190565b600082601f83011261174257600080fd5b813560206117576117528361170e565b6116de565b82815260059290921b8401810191818101908684111561177657600080fd5b8286015b848110156117a257803561ffff811681146117955760008081fd5b835291830191830161177a565b509695505050505050565b6000806000606084860312156117c257600080fd5b83356001600160401b03808211156117d957600080fd5b818601915086601f8301126117ed57600080fd5b813560206117fd6117528361170e565b82815260059290921b8401810191818101908a84111561181c57600080fd5b948201945b838610156118435785356118348161161f565b82529482019490820190611821565b9750508701359250508082111561185957600080fd5b5061186686828701611731565b925050604084013590509250925092565b6020808252600890820152676e6f74206c69766560c01b604082015260600190565b6000602082840312156118ab57600080fd5b81516116518161161f565b634e487b7160e01b600052603260045260246000fd5b8281526040602082015260006113d26040830184611658565b600060208083850312156118f857600080fd5b82516001600160401b0381111561190e57600080fd5b8301601f8101851361191f57600080fd5b805161192d6117528261170e565b81815260059190911b8201830190838101908783111561194c57600080fd5b928401925b828410156114aa57835182529284019290840190611951565b634e487b7160e01b600052601160045260246000fd5b80820281158282048414176119975761199761196a565b92915050565b6000826119ba57634e487b7160e01b600052601260045260246000fd5b500490565b6000600182016119d1576119d161196a565b5060010190565b6000602082840312156119ea57600080fd5b5051919050565b600060208284031215611a0357600080fd5b815160ff8116811461165157600080fd5b600181815b80851115611a4f578160001904821115611a3557611a3561196a565b80851615611a4257918102915b93841c9390800290611a19565b509250929050565b600082611a6657506001611997565b81611a7357506000611997565b8160018114611a895760028114611a9357611aaf565b6001915050611997565b60ff841115611aa457611aa461196a565b50506001821b611997565b5060208310610133831016604e8410600b8410161715611ad2575081810a611997565b611adc8383611a14565b8060001904821115611af057611af061196a565b029392505050565b600061165160ff841683611a57565b61ffff818116838216019080821115611b2257611b2261196a565b5092915050565b61ffff828116828216039080821115611b2257611b2261196a565b606081526000611b576060830186611658565b82810360208481019190915285518083528682019282019060005b81811015611b9257845161ffff1683529383019391830191600101611b72565b5050809350505050826040830152949350505050565b808201808211156119975761199761196a565b600060208284031215611bcd57600080fd5b8151801515811461165157600080fd5b60005b83811015611bf8578181015183820152602001611be0565b50506000910152565b60008251611c13818460208701611bdd565b9190910192915050565b6020815260008251806020840152611c3c816040850160208701611bdd565b601f01601f1916919091016040019291505056fea2646970667358221220fb7441e6d26cdc40fdca30f9598edc0bfc160a0c1c4813b620fb65ba8045fb3164736f6c63430008110033","opcodes":"PUSH1 0x80 PUSH1 0x40 MSTORE CALLVALUE DUP1 ISZERO PUSH3 0x11 JUMPI PUSH1 0x0 DUP1 REVERT JUMPDEST POP PUSH1 0x40 MLOAD PUSH3 0x22BA CODESIZE SUB DUP1 PUSH3 0x22BA DUP4 CODECOPY DUP2 ADD PUSH1 0x40 DUP2 SWAP1 MSTORE PUSH3 0x34 SWAP2 PUSH3 0x416 JUMP JUMPDEST PUSH3 0x3F CALLER PUSH3 0x251 JUMP JUMPDEST DUP3 MLOAD DUP5 MLOAD EQ PUSH3 0xA0 JUMPI PUSH1 0x40 MLOAD PUSH3 0x461BCD PUSH1 0xE5 SHL DUP2 MSTORE PUSH1 0x20 PUSH1 0x4 DUP3 ADD MSTORE PUSH1 0x21 PUSH1 0x24 DUP3 ADD MSTORE PUSH32 0x6E6F742073616D6520726563656976657220616E6420726174696F20636F756E PUSH1 0x44 DUP3 ADD MSTORE PUSH1 0x1D PUSH1 0xFA SHL PUSH1 0x64 DUP3 ADD MSTORE PUSH1 0x84 ADD JUMPDEST PUSH1 0x40 MLOAD DUP1 SWAP2 SUB SWAP1 REVERT JUMPDEST PUSH1 0x0 DUP3 GT PUSH3 0xF2 JUMPI PUSH1 0x40 MLOAD PUSH3 0x461BCD PUSH1 0xE5 SHL DUP2 MSTORE PUSH1 0x20 PUSH1 0x4 DUP3 ADD MSTORE PUSH1 0x1E PUSH1 0x24 DUP3 ADD MSTORE PUSH32 0x526174696F2073686F756C642062652067726561746572207468616E20300000 PUSH1 0x44 DUP3 ADD MSTORE PUSH1 0x64 ADD PUSH3 0x97 JUMP JUMPDEST DUP4 MLOAD PUSH3 0x107 SWAP1 PUSH1 0x1 SWAP1 PUSH1 0x20 DUP8 ADD SWAP1 PUSH3 0x2A1 JUMP JUMPDEST POP PUSH1 0x0 DUP1 JUMPDEST DUP6 MLOAD DUP2 LT ISZERO PUSH3 0x1CF JUMPI DUP5 DUP2 DUP2 MLOAD DUP2 LT PUSH3 0x12B JUMPI PUSH3 0x12B PUSH3 0x504 JUMP JUMPDEST PUSH1 0x20 MUL PUSH1 0x20 ADD ADD MLOAD PUSH1 0x2 PUSH1 0x0 DUP9 DUP5 DUP2 MLOAD DUP2 LT PUSH3 0x14C JUMPI PUSH3 0x14C PUSH3 0x504 JUMP JUMPDEST PUSH1 0x20 MUL PUSH1 0x20 ADD ADD MLOAD PUSH1 0x1 PUSH1 0x1 PUSH1 0xA0 SHL SUB AND PUSH1 0x1 PUSH1 0x1 PUSH1 0xA0 SHL SUB AND DUP2 MSTORE PUSH1 0x20 ADD SWAP1 DUP2 MSTORE PUSH1 0x20 ADD PUSH1 0x0 KECCAK256 PUSH1 0x0 PUSH2 0x100 EXP DUP2 SLOAD DUP2 PUSH2 0xFFFF MUL NOT AND SWAP1 DUP4 PUSH2 0xFFFF AND MUL OR SWAP1 SSTORE POP DUP5 DUP2 DUP2 MLOAD DUP2 LT PUSH3 0x1A3 JUMPI PUSH3 0x1A3 PUSH3 0x504 JUMP JUMPDEST PUSH1 0x20 MUL PUSH1 0x20 ADD ADD MLOAD DUP3 PUSH3 0x1B8 SWAP2 SWAP1 PUSH3 0x530 JUMP JUMPDEST SWAP2 POP DUP1 PUSH3 0x1C6 DUP2 PUSH3 0x555 JUMP JUMPDEST SWAP2 POP POP PUSH3 0x10C JUMP JUMPDEST POP PUSH3 0x1DE DUP2 PUSH2 0x3E8 PUSH3 0x571 JUMP JUMPDEST PUSH1 0x3 DUP1 SLOAD PUSH2 0xFFFF NOT AND PUSH2 0xFFFF SWAP3 SWAP1 SWAP3 AND SWAP2 SWAP1 SWAP2 OR SWAP1 SSTORE PUSH1 0x4 DUP4 SWAP1 SSTORE PUSH1 0xA DUP1 SLOAD PUSH1 0xFF NOT AND SWAP1 SSTORE PUSH1 0xB DUP3 SWAP1 SSTORE PUSH1 0x40 MLOAD PUSH32 0xB8FFA35FABF870464B1F28AC36F392A134DB3FB2C6E2EE2F022C5A49E242BAC0 SWAP1 PUSH3 0x23E SWAP1 DUP8 SWAP1 DUP8 SWAP1 DUP8 SWAP1 PUSH3 0x58F JUMP JUMPDEST PUSH1 0x40 MLOAD DUP1 SWAP2 SUB SWAP1 LOG1 POP POP POP POP POP PUSH3 0x624 JUMP JUMPDEST PUSH1 0x0 DUP1 SLOAD PUSH1 0x1 PUSH1 0x1 PUSH1 0xA0 SHL SUB DUP4 DUP2 AND PUSH1 0x1 PUSH1 0x1 PUSH1 0xA0 SHL SUB NOT DUP4 AND DUP2 OR DUP5 SSTORE PUSH1 0x40 MLOAD SWAP2 SWAP1 SWAP3 AND SWAP3 DUP4 SWAP2 PUSH32 0x8BE0079C531659141344CD1FD0A4F28419497F9722A3DAAFE3B4186F6B6457E0 SWAP2 SWAP1 LOG3 POP POP JUMP JUMPDEST DUP3 DUP1 SLOAD DUP3 DUP3 SSTORE SWAP1 PUSH1 0x0 MSTORE PUSH1 0x20 PUSH1 0x0 KECCAK256 SWAP1 DUP2 ADD SWAP3 DUP3 ISZERO PUSH3 0x2F9 JUMPI SWAP2 PUSH1 0x20 MUL DUP3 ADD JUMPDEST DUP3 DUP2 GT ISZERO PUSH3 0x2F9 JUMPI DUP3 MLOAD DUP3 SLOAD PUSH1 0x1 PUSH1 0x1 PUSH1 0xA0 SHL SUB NOT AND PUSH1 0x1 PUSH1 0x1 PUSH1 0xA0 SHL SUB SWAP1 SWAP2 AND OR DUP3 SSTORE PUSH1 0x20 SWAP1 SWAP3 ADD SWAP2 PUSH1 0x1 SWAP1 SWAP2 ADD SWAP1 PUSH3 0x2C2 JUMP JUMPDEST POP PUSH3 0x307 SWAP3 SWAP2 POP PUSH3 0x30B JUMP JUMPDEST POP SWAP1 JUMP JUMPDEST JUMPDEST DUP1 DUP3 GT ISZERO PUSH3 0x307 JUMPI PUSH1 0x0 DUP2 SSTORE PUSH1 0x1 ADD PUSH3 0x30C JUMP JUMPDEST PUSH4 0x4E487B71 PUSH1 0xE0 SHL PUSH1 0x0 MSTORE PUSH1 0x41 PUSH1 0x4 MSTORE PUSH1 0x24 PUSH1 0x0 REVERT JUMPDEST PUSH1 0x40 MLOAD PUSH1 0x1F DUP3 ADD PUSH1 0x1F NOT AND DUP2 ADD PUSH1 0x1 PUSH1 0x1 PUSH1 0x40 SHL SUB DUP2 GT DUP3 DUP3 LT OR ISZERO PUSH3 0x363 JUMPI PUSH3 0x363 PUSH3 0x322 JUMP JUMPDEST PUSH1 0x40 MSTORE SWAP2 SWAP1 POP JUMP JUMPDEST PUSH1 0x0 PUSH1 0x1 PUSH1 0x1 PUSH1 0x40 SHL SUB DUP3 GT ISZERO PUSH3 0x387 JUMPI PUSH3 0x387 PUSH3 0x322 JUMP JUMPDEST POP PUSH1 0x5 SHL PUSH1 0x20 ADD SWAP1 JUMP JUMPDEST PUSH1 0x0 DUP3 PUSH1 0x1F DUP4 ADD SLT PUSH3 0x3A3 JUMPI PUSH1 0x0 DUP1 REVERT JUMPDEST DUP2 MLOAD PUSH1 0x20 PUSH3 0x3BC PUSH3 0x3B6 DUP4 PUSH3 0x36B JUMP JUMPDEST PUSH3 0x338 JUMP JUMPDEST DUP3 DUP2 MSTORE PUSH1 0x5 SWAP3 SWAP1 SWAP3 SHL DUP5 ADD DUP2 ADD SWAP2 DUP2 DUP2 ADD SWAP1 DUP7 DUP5 GT ISZERO PUSH3 0x3DC JUMPI PUSH1 0x0 DUP1 REVERT JUMPDEST DUP3 DUP7 ADD JUMPDEST DUP5 DUP2 LT ISZERO PUSH3 0x40B JUMPI DUP1 MLOAD PUSH2 0xFFFF DUP2 AND DUP2 EQ PUSH3 0x3FD JUMPI PUSH1 0x0 DUP1 DUP2 REVERT JUMPDEST DUP4 MSTORE SWAP2 DUP4 ADD SWAP2 DUP4 ADD PUSH3 0x3E0 JUMP JUMPDEST POP SWAP7 SWAP6 POP POP POP POP POP POP JUMP JUMPDEST PUSH1 0x0 DUP1 PUSH1 0x0 DUP1 PUSH1 0x80 DUP6 DUP8 SUB SLT ISZERO PUSH3 0x42D JUMPI PUSH1 0x0 DUP1 REVERT JUMPDEST DUP5 MLOAD PUSH1 0x1 PUSH1 0x1 PUSH1 0x40 SHL SUB DUP1 DUP3 GT ISZERO PUSH3 0x445 JUMPI PUSH1 0x0 DUP1 REVERT JUMPDEST DUP2 DUP8 ADD SWAP2 POP DUP8 PUSH1 0x1F DUP4 ADD SLT PUSH3 0x45A JUMPI PUSH1 0x0 DUP1 REVERT JUMPDEST DUP2 MLOAD PUSH1 0x20 PUSH3 0x46D PUSH3 0x3B6 DUP4 PUSH3 0x36B JUMP JUMPDEST DUP3 DUP2 MSTORE PUSH1 0x5 SWAP3 SWAP1 SWAP3 SHL DUP5 ADD DUP2 ADD SWAP2 DUP2 DUP2 ADD SWAP1 DUP12 DUP5 GT ISZERO PUSH3 0x48D JUMPI PUSH1 0x0 DUP1 REVERT JUMPDEST SWAP5 DUP3 ADD SWAP5 JUMPDEST DUP4 DUP7 LT ISZERO PUSH3 0x4C4 JUMPI DUP6 MLOAD PUSH1 0x1 PUSH1 0x1 PUSH1 0xA0 SHL SUB DUP2 AND DUP2 EQ PUSH3 0x4B4 JUMPI PUSH1 0x0 DUP1 DUP2 REVERT JUMPDEST DUP3 MSTORE SWAP5 DUP3 ADD SWAP5 SWAP1 DUP3 ADD SWAP1 PUSH3 0x492 JUMP JUMPDEST SWAP2 DUP11 ADD MLOAD SWAP2 SWAP9 POP SWAP1 SWAP4 POP POP POP DUP1 DUP3 GT ISZERO PUSH3 0x4DE JUMPI PUSH1 0x0 DUP1 REVERT JUMPDEST POP PUSH3 0x4ED DUP8 DUP3 DUP9 ADD PUSH3 0x391 JUMP JUMPDEST PUSH1 0x40 DUP8 ADD MLOAD PUSH1 0x60 SWAP1 SWAP8 ADD MLOAD SWAP6 SWAP9 SWAP1 SWAP8 POP SWAP4 POP POP POP POP JUMP JUMPDEST PUSH4 0x4E487B71 PUSH1 0xE0 SHL PUSH1 0x0 MSTORE PUSH1 0x32 PUSH1 0x4 MSTORE PUSH1 0x24 PUSH1 0x0 REVERT JUMPDEST PUSH4 0x4E487B71 PUSH1 0xE0 SHL PUSH1 0x0 MSTORE PUSH1 0x11 PUSH1 0x4 MSTORE PUSH1 0x24 PUSH1 0x0 REVERT JUMPDEST PUSH2 0xFFFF DUP2 DUP2 AND DUP4 DUP3 AND ADD SWAP1 DUP1 DUP3 GT ISZERO PUSH3 0x54E JUMPI PUSH3 0x54E PUSH3 0x51A JUMP JUMPDEST POP SWAP3 SWAP2 POP POP JUMP JUMPDEST PUSH1 0x0 PUSH1 0x1 DUP3 ADD PUSH3 0x56A JUMPI PUSH3 0x56A PUSH3 0x51A JUMP JUMPDEST POP PUSH1 0x1 ADD SWAP1 JUMP JUMPDEST PUSH2 0xFFFF DUP3 DUP2 AND DUP3 DUP3 AND SUB SWAP1 DUP1 DUP3 GT ISZERO PUSH3 0x54E JUMPI PUSH3 0x54E PUSH3 0x51A JUMP JUMPDEST PUSH1 0x60 DUP1 DUP3 MSTORE DUP5 MLOAD SWAP1 DUP3 ADD DUP2 SWAP1 MSTORE PUSH1 0x0 SWAP1 PUSH1 0x20 SWAP1 PUSH1 0x80 DUP5 ADD SWAP1 DUP3 DUP9 ADD DUP5 JUMPDEST DUP3 DUP2 LT ISZERO PUSH3 0x5D3 JUMPI DUP2 MLOAD PUSH1 0x1 PUSH1 0x1 PUSH1 0xA0 SHL SUB AND DUP5 MSTORE SWAP3 DUP5 ADD SWAP3 SWAP1 DUP5 ADD SWAP1 PUSH1 0x1 ADD PUSH3 0x5AC JUMP JUMPDEST POP POP POP DUP4 DUP2 SUB DUP3 DUP6 ADD MSTORE DUP6 MLOAD DUP1 DUP3 MSTORE DUP7 DUP4 ADD SWAP2 DUP4 ADD SWAP1 PUSH1 0x0 JUMPDEST DUP2 DUP2 LT ISZERO PUSH3 0x60E JUMPI DUP4 MLOAD PUSH2 0xFFFF AND DUP4 MSTORE SWAP3 DUP5 ADD SWAP3 SWAP2 DUP5 ADD SWAP2 PUSH1 0x1 ADD PUSH3 0x5EC JUMP JUMPDEST POP POP DUP1 SWAP4 POP POP POP POP DUP3 PUSH1 0x40 DUP4 ADD MSTORE SWAP5 SWAP4 POP POP POP POP JUMP JUMPDEST PUSH2 0x1C86 DUP1 PUSH3 0x634 PUSH1 0x0 CODECOPY PUSH1 0x0 RETURN INVALID PUSH1 0x80 PUSH1 0x40 MSTORE PUSH1 0x4 CALLDATASIZE LT PUSH2 0xD9 JUMPI PUSH1 0x0 CALLDATALOAD PUSH1 0xE0 SHR DUP1 PUSH4 0x150D283D EQ PUSH2 0xDE JUMPI DUP1 PUSH4 0x200D2ED2 EQ PUSH2 0xE8 JUMPI DUP1 PUSH4 0x24FFEA1A EQ PUSH2 0x118 JUMPI DUP1 PUSH4 0x2F6C493C EQ PUSH2 0x14D JUMPI DUP1 PUSH4 0x4E71D92D EQ PUSH2 0x16D JUMPI DUP1 PUSH4 0x580433F3 EQ PUSH2 0x182 JUMPI DUP1 PUSH4 0x64CDB69E EQ PUSH2 0x1A6 JUMPI DUP1 PUSH4 0x715018A6 EQ PUSH2 0x1C8 JUMPI DUP1 PUSH4 0x8DA5CB5B EQ PUSH2 0x1DD JUMPI DUP1 PUSH4 0x8F35A75E EQ PUSH2 0x1F2 JUMPI DUP1 PUSH4 0x9C3709EA EQ PUSH2 0x22F JUMPI DUP1 PUSH4 0xAC74B42D EQ PUSH2 0x25D JUMPI DUP1 PUSH4 0xBFD772FC EQ PUSH2 0x27D JUMPI DUP1 PUSH4 0xC21EBD07 EQ PUSH2 0x29D JUMPI DUP1 PUSH4 0xCC3A2F05 EQ PUSH2 0x2C5 JUMPI DUP1 PUSH4 0xD61E7201 EQ PUSH2 0x2F6 JUMPI DUP1 PUSH4 0xDD314832 EQ PUSH2 0x316 JUMPI DUP1 PUSH4 0xF2FDE38B EQ PUSH2 0x336 JUMPI JUMPDEST PUSH1 0x0 DUP1 REVERT JUMPDEST PUSH2 0xE6 PUSH2 0x356 JUMP JUMPDEST STOP JUMPDEST CALLVALUE DUP1 ISZERO PUSH2 0xF4 JUMPI PUSH1 0x0 DUP1 REVERT JUMPDEST POP PUSH1 0xA SLOAD PUSH2 0x102 SWAP1 PUSH1 0xFF AND DUP2 JUMP JUMPDEST PUSH1 0x40 MLOAD PUSH2 0x10F SWAP2 SWAP1 PUSH2 0x15E3 JUMP JUMPDEST PUSH1 0x40 MLOAD DUP1 SWAP2 SUB SWAP1 RETURN JUMPDEST CALLVALUE DUP1 ISZERO PUSH2 0x124 JUMPI PUSH1 0x0 DUP1 REVERT JUMPDEST POP PUSH2 0x140 PUSH20 0xDAC17F958D2EE523A2206206994597C13D831EC7 DUP2 JUMP JUMPDEST PUSH1 0x40 MLOAD PUSH2 0x10F SWAP2 SWAP1 PUSH2 0x160B JUMP JUMPDEST CALLVALUE DUP1 ISZERO PUSH2 0x159 JUMPI PUSH1 0x0 DUP1 REVERT JUMPDEST POP PUSH2 0xE6 PUSH2 0x168 CALLDATASIZE PUSH1 0x4 PUSH2 0x1634 JUMP JUMPDEST PUSH2 0x6F3 JUMP JUMPDEST CALLVALUE DUP1 ISZERO PUSH2 0x179 JUMPI PUSH1 0x0 DUP1 REVERT JUMPDEST POP PUSH2 0xE6 PUSH2 0x87C JUMP JUMPDEST CALLVALUE DUP1 ISZERO PUSH2 0x18E JUMPI PUSH1 0x0 DUP1 REVERT JUMPDEST POP PUSH2 0x198 PUSH1 0x4 SLOAD DUP2 JUMP JUMPDEST PUSH1 0x40 MLOAD SWAP1 DUP2 MSTORE PUSH1 0x20 ADD PUSH2 0x10F JUMP JUMPDEST CALLVALUE DUP1 ISZERO PUSH2 0x1B2 JUMPI PUSH1 0x0 DUP1 REVERT JUMPDEST POP PUSH2 0x1BB PUSH2 0x9DB JUMP JUMPDEST PUSH1 0x40 MLOAD PUSH2 0x10F SWAP2 SWAP1 PUSH2 0x169C JUMP JUMPDEST CALLVALUE DUP1 ISZERO PUSH2 0x1D4 JUMPI PUSH1 0x0 DUP1 REVERT JUMPDEST POP PUSH2 0xE6 PUSH2 0x9EC JUMP JUMPDEST CALLVALUE DUP1 ISZERO PUSH2 0x1E9 JUMPI PUSH1 0x0 DUP1 REVERT JUMPDEST POP PUSH2 0x140 PUSH2 0xA00 JUMP JUMPDEST CALLVALUE DUP1 ISZERO PUSH2 0x1FE JUMPI PUSH1 0x0 DUP1 REVERT JUMPDEST POP PUSH2 0x212 PUSH2 0x20D CALLDATASIZE PUSH1 0x4 PUSH2 0x1634 JUMP JUMPDEST PUSH2 0xA0F JUMP JUMPDEST PUSH1 0x40 DUP1 MLOAD SWAP4 DUP5 MSTORE SWAP2 ISZERO ISZERO PUSH1 0x20 DUP5 ADD MSTORE ISZERO ISZERO SWAP1 DUP3 ADD MSTORE PUSH1 0x60 ADD PUSH2 0x10F JUMP JUMPDEST CALLVALUE DUP1 ISZERO PUSH2 0x23B JUMPI PUSH1 0x0 DUP1 REVERT JUMPDEST POP PUSH1 0x3 SLOAD PUSH2 0x24A SWAP1 PUSH2 0xFFFF AND DUP2 JUMP JUMPDEST PUSH1 0x40 MLOAD PUSH2 0xFFFF SWAP1 SWAP2 AND DUP2 MSTORE PUSH1 0x20 ADD PUSH2 0x10F JUMP JUMPDEST CALLVALUE DUP1 ISZERO PUSH2 0x269 JUMPI PUSH1 0x0 DUP1 REVERT JUMPDEST POP PUSH2 0xE6 PUSH2 0x278 CALLDATASIZE PUSH1 0x4 PUSH2 0x16AF JUMP JUMPDEST PUSH2 0xA2B JUMP JUMPDEST CALLVALUE DUP1 ISZERO PUSH2 0x289 JUMPI PUSH1 0x0 DUP1 REVERT JUMPDEST POP PUSH2 0x140 PUSH2 0x298 CALLDATASIZE PUSH1 0x4 PUSH2 0x16AF JUMP JUMPDEST PUSH2 0xBC0 JUMP JUMPDEST CALLVALUE DUP1 ISZERO PUSH2 0x2A9 JUMPI PUSH1 0x0 DUP1 REVERT JUMPDEST POP PUSH2 0x140 PUSH20 0x9AC64CC6E4415144C455BD8E4837FEA55603E5C3 DUP2 JUMP JUMPDEST CALLVALUE DUP1 ISZERO PUSH2 0x2D1 JUMPI PUSH1 0x0 DUP1 REVERT JUMPDEST POP PUSH2 0x24A PUSH2 0x2E0 CALLDATASIZE PUSH1 0x4 PUSH2 0x1634 JUMP JUMPDEST PUSH1 0x2 PUSH1 0x20 MSTORE PUSH1 0x0 SWAP1 DUP2 MSTORE PUSH1 0x40 SWAP1 KECCAK256 SLOAD PUSH2 0xFFFF AND DUP2 JUMP JUMPDEST CALLVALUE DUP1 ISZERO PUSH2 0x302 JUMPI PUSH1 0x0 DUP1 REVERT JUMPDEST POP PUSH2 0xE6 PUSH2 0x311 CALLDATASIZE PUSH1 0x4 PUSH2 0x16AF JUMP JUMPDEST PUSH2 0xBEA JUMP JUMPDEST CALLVALUE DUP1 ISZERO PUSH2 0x322 JUMPI PUSH1 0x0 DUP1 REVERT JUMPDEST POP PUSH2 0xE6 PUSH2 0x331 CALLDATASIZE PUSH1 0x4 PUSH2 0x17AD JUMP JUMPDEST PUSH2 0xCCE JUMP JUMPDEST CALLVALUE DUP1 ISZERO PUSH2 0x342 JUMPI PUSH1 0x0 DUP1 REVERT JUMPDEST POP PUSH2 0xE6 PUSH2 0x351 CALLDATASIZE PUSH1 0x4 PUSH2 0x1634 JUMP JUMPDEST PUSH2 0xE71 JUMP JUMPDEST PUSH1 0x1 PUSH1 0xA SLOAD PUSH1 0xFF AND PUSH1 0x3 DUP2 GT ISZERO PUSH2 0x36F JUMPI PUSH2 0x36F PUSH2 0x15CD JUMP JUMPDEST EQ PUSH2 0x395 JUMPI PUSH1 0x40 MLOAD PUSH3 0x461BCD PUSH1 0xE5 SHL DUP2 MSTORE PUSH1 0x4 ADD PUSH2 0x38C SWAP1 PUSH2 0x1877 JUMP JUMPDEST PUSH1 0x40 MLOAD DUP1 SWAP2 SUB SWAP1 REVERT JUMPDEST PUSH1 0x0 CALLVALUE GT PUSH2 0x3A2 JUMPI PUSH1 0x0 DUP1 REVERT JUMPDEST PUSH1 0x40 DUP1 MLOAD PUSH1 0x2 DUP1 DUP3 MSTORE PUSH1 0x60 DUP3 ADD DUP4 MSTORE PUSH1 0x0 SWAP3 PUSH1 0x20 DUP4 ADD SWAP1 DUP1 CALLDATASIZE DUP4 CALLDATACOPY ADD SWAP1 POP POP SWAP1 POP PUSH20 0x9AC64CC6E4415144C455BD8E4837FEA55603E5C3 PUSH1 0x1 PUSH1 0x1 PUSH1 0xA0 SHL SUB AND PUSH4 0xAD5C4648 PUSH1 0x40 MLOAD DUP2 PUSH4 0xFFFFFFFF AND PUSH1 0xE0 SHL DUP2 MSTORE PUSH1 0x4 ADD PUSH1 0x20 PUSH1 0x40 MLOAD DUP1 DUP4 SUB DUP2 DUP7 GAS STATICCALL ISZERO DUP1 ISZERO PUSH2 0x415 JUMPI RETURNDATASIZE PUSH1 0x0 DUP1 RETURNDATACOPY RETURNDATASIZE PUSH1 0x0 REVERT JUMPDEST POP POP POP POP PUSH1 0x40 MLOAD RETURNDATASIZE PUSH1 0x1F NOT PUSH1 0x1F DUP3 ADD AND DUP3 ADD DUP1 PUSH1 0x40 MSTORE POP DUP2 ADD SWAP1 PUSH2 0x439 SWAP2 SWAP1 PUSH2 0x1899 JUMP JUMPDEST DUP2 PUSH1 0x0 DUP2 MLOAD DUP2 LT PUSH2 0x44C JUMPI PUSH2 0x44C PUSH2 0x18B6 JUMP JUMPDEST PUSH1 0x20 MUL PUSH1 0x20 ADD ADD SWAP1 PUSH1 0x1 PUSH1 0x1 PUSH1 0xA0 SHL SUB AND SWAP1 DUP2 PUSH1 0x1 PUSH1 0x1 PUSH1 0xA0 SHL SUB AND DUP2 MSTORE POP POP PUSH20 0xDAC17F958D2EE523A2206206994597C13D831EC7 DUP2 PUSH1 0x1 DUP2 MLOAD DUP2 LT PUSH2 0x494 JUMPI PUSH2 0x494 PUSH2 0x18B6 JUMP JUMPDEST PUSH1 0x1 PUSH1 0x1 PUSH1 0xA0 SHL SUB SWAP1 SWAP3 AND PUSH1 0x20 SWAP3 DUP4 MUL SWAP2 SWAP1 SWAP2 ADD SWAP1 SWAP2 ADD MSTORE PUSH1 0x40 MLOAD PUSH4 0xD06CA61F PUSH1 0xE0 SHL DUP2 MSTORE PUSH1 0x0 SWAP1 PUSH20 0x9AC64CC6E4415144C455BD8E4837FEA55603E5C3 SWAP1 PUSH4 0xD06CA61F SWAP1 PUSH2 0x4E8 SWAP1 CALLVALUE SWAP1 DUP7 SWAP1 PUSH1 0x4 ADD PUSH2 0x18CC JUMP JUMPDEST PUSH1 0x0 PUSH1 0x40 MLOAD DUP1 DUP4 SUB DUP2 DUP7 GAS STATICCALL ISZERO DUP1 ISZERO PUSH2 0x505 JUMPI RETURNDATASIZE PUSH1 0x0 DUP1 RETURNDATACOPY RETURNDATASIZE PUSH1 0x0 REVERT JUMPDEST POP POP POP POP PUSH1 0x40 MLOAD RETURNDATASIZE PUSH1 0x0 DUP3 RETURNDATACOPY PUSH1 0x1F RETURNDATASIZE SWAP1 DUP2 ADD PUSH1 0x1F NOT AND DUP3 ADD PUSH1 0x40 MSTORE PUSH2 0x52D SWAP2 SWAP1 DUP2 ADD SWAP1 PUSH2 0x18E5 JUMP JUMPDEST SWAP1 POP PUSH1 0x0 JUMPDEST PUSH1 0x1 SLOAD DUP2 LT ISZERO PUSH2 0x661 JUMPI PUSH1 0x0 PUSH1 0x2 PUSH1 0x0 PUSH1 0x1 DUP5 DUP2 SLOAD DUP2 LT PUSH2 0x555 JUMPI PUSH2 0x555 PUSH2 0x18B6 JUMP JUMPDEST PUSH1 0x0 SWAP2 DUP3 MSTORE PUSH1 0x20 DUP1 DUP4 KECCAK256 SWAP1 SWAP2 ADD SLOAD PUSH1 0x1 PUSH1 0x1 PUSH1 0xA0 SHL SUB AND DUP4 MSTORE DUP3 ADD SWAP3 SWAP1 SWAP3 MSTORE PUSH1 0x40 ADD SWAP1 KECCAK256 SLOAD PUSH2 0xFFFF AND GT ISZERO PUSH2 0x64F JUMPI PUSH1 0x0 PUSH1 0x1 DUP3 DUP2 SLOAD DUP2 LT PUSH2 0x599 JUMPI PUSH2 0x599 PUSH2 0x18B6 JUMP JUMPDEST PUSH1 0x0 SWAP2 DUP3 MSTORE PUSH1 0x20 DUP3 KECCAK256 ADD SLOAD PUSH1 0x1 DUP1 SLOAD PUSH1 0x1 PUSH1 0x1 PUSH1 0xA0 SHL SUB SWAP1 SWAP3 AND SWAP3 PUSH2 0x3E8 SWAP3 PUSH1 0x2 SWAP3 SWAP1 DUP8 SWAP1 DUP2 LT PUSH2 0x5CC JUMPI PUSH2 0x5CC PUSH2 0x18B6 JUMP JUMPDEST PUSH1 0x0 SWAP2 DUP3 MSTORE PUSH1 0x20 DUP1 DUP4 KECCAK256 SWAP1 SWAP2 ADD SLOAD PUSH1 0x1 PUSH1 0x1 PUSH1 0xA0 SHL SUB AND DUP4 MSTORE DUP3 ADD SWAP3 SWAP1 SWAP3 MSTORE PUSH1 0x40 ADD SWAP1 KECCAK256 SLOAD PUSH2 0x5FF SWAP1 PUSH2 0xFFFF AND CALLVALUE PUSH2 0x1980 JUMP JUMPDEST PUSH2 0x609 SWAP2 SWAP1 PUSH2 0x199D JUMP JUMPDEST PUSH1 0x40 MLOAD PUSH1 0x0 DUP2 DUP2 DUP2 DUP6 DUP8 GAS CALL SWAP3 POP POP POP RETURNDATASIZE DUP1 PUSH1 0x0 DUP2 EQ PUSH2 0x645 JUMPI PUSH1 0x40 MLOAD SWAP2 POP PUSH1 0x1F NOT PUSH1 0x3F RETURNDATASIZE ADD AND DUP3 ADD PUSH1 0x40 MSTORE RETURNDATASIZE DUP3 MSTORE RETURNDATASIZE PUSH1 0x0 PUSH1 0x20 DUP5 ADD RETURNDATACOPY PUSH2 0x64A JUMP JUMPDEST PUSH1 0x60 SWAP2 POP JUMPDEST POP POP POP POP JUMPDEST DUP1 PUSH2 0x659 DUP2 PUSH2 0x19BF JUMP JUMPDEST SWAP2 POP POP PUSH2 0x532 JUMP JUMPDEST POP PUSH2 0x692 CALLER DUP3 PUSH1 0x1 DUP2 MLOAD DUP2 LT PUSH2 0x679 JUMPI PUSH2 0x679 PUSH2 0x18B6 JUMP JUMPDEST PUSH1 0x20 MUL PUSH1 0x20 ADD ADD MLOAD PUSH1 0x5 PUSH2 0xEEA SWAP1 SWAP3 SWAP2 SWAP1 PUSH4 0xFFFFFFFF AND JUMP JUMPDEST CALLER PUSH1 0x1 PUSH1 0x1 PUSH1 0xA0 SHL SUB AND PUSH32 0xC55650CCDA1011E1CDC769B1FBF546EBB8C97800B6072B49E06CD560305B1D67 DUP3 PUSH1 0x1 DUP2 MLOAD DUP2 LT PUSH2 0x6D0 JUMPI PUSH2 0x6D0 PUSH2 0x18B6 JUMP JUMPDEST PUSH1 0x20 MUL PUSH1 0x20 ADD ADD MLOAD PUSH1 0x40 MLOAD PUSH2 0x6E7 SWAP2 DUP2 MSTORE PUSH1 0x20 ADD SWAP1 JUMP JUMPDEST PUSH1 0x40 MLOAD DUP1 SWAP2 SUB SWAP1 LOG2 POP POP JUMP JUMPDEST PUSH2 0x6FB PUSH2 0xFCF JUMP JUMPDEST TIMESTAMP PUSH1 0xB SLOAD LT PUSH2 0x74B JUMPI PUSH1 0x40 MLOAD PUSH3 0x461BCD PUSH1 0xE5 SHL DUP2 MSTORE PUSH1 0x20 PUSH1 0x4 DUP3 ADD MSTORE PUSH1 0x1C PUSH1 0x24 DUP3 ADD MSTORE PUSH28 0x4C6F636B20706572696F64206973206E6F74206F7665722079657421 PUSH1 0x20 SHL PUSH1 0x44 DUP3 ADD MSTORE PUSH1 0x64 ADD PUSH2 0x38C JUMP JUMPDEST PUSH1 0x40 MLOAD PUSH4 0x70A08231 PUSH1 0xE0 SHL DUP2 MSTORE PUSH2 0x7E5 SWAP1 DUP3 SWAP1 PUSH20 0xDAC17F958D2EE523A2206206994597C13D831EC7 SWAP1 PUSH4 0x70A08231 SWAP1 PUSH2 0x788 SWAP1 ADDRESS SWAP1 PUSH1 0x4 ADD PUSH2 0x160B JUMP JUMPDEST PUSH1 0x20 PUSH1 0x40 MLOAD DUP1 DUP4 SUB DUP2 DUP7 GAS STATICCALL ISZERO DUP1 ISZERO PUSH2 0x7A5 JUMPI RETURNDATASIZE PUSH1 0x0 DUP1 RETURNDATACOPY RETURNDATASIZE PUSH1 0x0 REVERT JUMPDEST POP POP POP POP PUSH1 0x40 MLOAD RETURNDATASIZE PUSH1 0x1F NOT PUSH1 0x1F DUP3 ADD AND DUP3 ADD DUP1 PUSH1 0x40 MSTORE POP DUP2 ADD SWAP1 PUSH2 0x7C9 SWAP2 SWAP1 PUSH2 0x19D8 JUMP JUMPDEST PUSH20 0xDAC17F958D2EE523A2206206994597C13D831EC7 SWAP2 SWAP1 PUSH2 0x102E JUMP JUMPDEST PUSH1 0x0 DUP2 PUSH1 0x1 PUSH1 0x1 PUSH1 0xA0 SHL SUB AND SELFBALANCE PUSH1 0x40 MLOAD PUSH1 0x0 PUSH1 0x40 MLOAD DUP1 DUP4 SUB DUP2 DUP6 DUP8 GAS CALL SWAP3 POP POP POP RETURNDATASIZE DUP1 PUSH1 0x0 DUP2 EQ PUSH2 0x832 JUMPI PUSH1 0x40 MLOAD SWAP2 POP PUSH1 0x1F NOT PUSH1 0x3F RETURNDATASIZE ADD AND DUP3 ADD PUSH1 0x40 MSTORE RETURNDATASIZE DUP3 MSTORE RETURNDATASIZE PUSH1 0x0 PUSH1 0x20 DUP5 ADD RETURNDATACOPY PUSH2 0x837 JUMP JUMPDEST PUSH1 0x60 SWAP2 POP JUMPDEST POP POP SWAP1 POP DUP1 PUSH2 0x878 JUMPI PUSH1 0x40 MLOAD PUSH3 0x461BCD PUSH1 0xE5 SHL DUP2 MSTORE PUSH1 0x20 PUSH1 0x4 DUP3 ADD MSTORE PUSH1 0xD PUSH1 0x24 DUP3 ADD MSTORE PUSH13 0x1499599D5B990811985A5B1959 PUSH1 0x9A SHL PUSH1 0x44 DUP3 ADD MSTORE PUSH1 0x64 ADD PUSH2 0x38C JUMP JUMPDEST POP POP JUMP JUMPDEST PUSH1 0x3 PUSH1 0xA SLOAD PUSH1 0xFF AND PUSH1 0x3 DUP2 GT ISZERO PUSH2 0x895 JUMPI PUSH2 0x895 PUSH2 0x15CD JUMP JUMPDEST EQ PUSH2 0x8D2 JUMPI PUSH1 0x40 MLOAD PUSH3 0x461BCD PUSH1 0xE5 SHL DUP2 MSTORE PUSH1 0x20 PUSH1 0x4 DUP3 ADD MSTORE PUSH1 0xD PUSH1 0x24 DUP3 ADD MSTORE PUSH13 0x6E6F7420636C61696D61626C65 PUSH1 0x98 SHL PUSH1 0x44 DUP3 ADD MSTORE PUSH1 0x64 ADD PUSH2 0x38C JUMP JUMPDEST PUSH1 0x0 PUSH2 0x8DF PUSH1 0x5 CALLER PUSH2 0x1091 JUMP JUMPDEST POP POP SWAP1 POP PUSH1 0x0 PUSH20 0xDAC17F958D2EE523A2206206994597C13D831EC7 PUSH1 0x1 PUSH1 0x1 PUSH1 0xA0 SHL SUB AND PUSH4 0x313CE567 PUSH1 0x40 MLOAD DUP2 PUSH4 0xFFFFFFFF AND PUSH1 0xE0 SHL DUP2 MSTORE PUSH1 0x4 ADD PUSH1 0x20 PUSH1 0x40 MLOAD DUP1 DUP4 SUB DUP2 DUP7 GAS STATICCALL ISZERO DUP1 ISZERO PUSH2 0x937 JUMPI RETURNDATASIZE PUSH1 0x0 DUP1 RETURNDATACOPY RETURNDATASIZE PUSH1 0x0 REVERT JUMPDEST POP POP POP POP PUSH1 0x40 MLOAD RETURNDATASIZE PUSH1 0x1F NOT PUSH1 0x1F DUP3 ADD AND DUP3 ADD DUP1 PUSH1 0x40 MSTORE POP DUP2 ADD SWAP1 PUSH2 0x95B SWAP2 SWAP1 PUSH2 0x19F1 JUMP JUMPDEST PUSH2 0x966 SWAP1 PUSH1 0xA PUSH2 0x1AF8 JUMP JUMPDEST PUSH1 0x4 SLOAD PUSH2 0x973 SWAP1 DUP5 PUSH2 0x1980 JUMP JUMPDEST PUSH2 0x97D SWAP2 SWAP1 PUSH2 0x199D JUMP JUMPDEST SWAP1 POP PUSH2 0x99E PUSH20 0xDAC17F958D2EE523A2206206994597C13D831EC7 CALLER DUP4 PUSH2 0x102E JUMP JUMPDEST PUSH2 0x9A9 PUSH1 0x5 CALLER PUSH2 0x10D2 JUMP JUMPDEST PUSH1 0x40 MLOAD DUP2 DUP2 MSTORE CALLER SWAP1 PUSH32 0xD8138F8A3F377C5259CA548E70E4C2DE94F129F5A11036A15B69513CBA2B426A SWAP1 PUSH1 0x20 ADD PUSH2 0x6E7 JUMP JUMPDEST PUSH1 0x60 PUSH2 0x9E7 PUSH1 0x5 PUSH2 0x11FD JUMP JUMPDEST SWAP1 POP SWAP1 JUMP JUMPDEST PUSH2 0x9F4 PUSH2 0xFCF JUMP JUMPDEST PUSH2 0x9FE PUSH1 0x0 PUSH2 0x1263 JUMP JUMPDEST JUMP JUMPDEST PUSH1 0x0 SLOAD PUSH1 0x1 PUSH1 0x1 PUSH1 0xA0 SHL SUB AND SWAP1 JUMP JUMPDEST PUSH1 0x0 DUP1 DUP1 PUSH2 0xA1E PUSH1 0x5 DUP6 PUSH2 0x1091 JUMP JUMPDEST SWAP2 SWAP7 SWAP1 SWAP6 POP SWAP1 SWAP4 POP SWAP2 POP POP JUMP JUMPDEST PUSH1 0x1 PUSH1 0xA SLOAD PUSH1 0xFF AND PUSH1 0x3 DUP2 GT ISZERO PUSH2 0xA44 JUMPI PUSH2 0xA44 PUSH2 0x15CD JUMP JUMPDEST EQ PUSH2 0xA61 JUMPI PUSH1 0x40 MLOAD PUSH3 0x461BCD PUSH1 0xE5 SHL DUP2 MSTORE PUSH1 0x4 ADD PUSH2 0x38C SWAP1 PUSH2 0x1877 JUMP JUMPDEST PUSH1 0x0 DUP2 GT PUSH2 0xA6E JUMPI PUSH1 0x0 DUP1 REVERT JUMPDEST PUSH2 0xA8E PUSH20 0xDAC17F958D2EE523A2206206994597C13D831EC7 CALLER ADDRESS DUP5 PUSH2 0x12B3 JUMP JUMPDEST PUSH1 0x0 JUMPDEST PUSH1 0x1 SLOAD DUP2 LT ISZERO PUSH2 0xB7B JUMPI PUSH1 0x0 PUSH1 0x2 PUSH1 0x0 PUSH1 0x1 DUP5 DUP2 SLOAD DUP2 LT PUSH2 0xAB4 JUMPI PUSH2 0xAB4 PUSH2 0x18B6 JUMP JUMPDEST PUSH1 0x0 SWAP2 DUP3 MSTORE PUSH1 0x20 DUP1 DUP4 KECCAK256 SWAP1 SWAP2 ADD SLOAD PUSH1 0x1 PUSH1 0x1 PUSH1 0xA0 SHL SUB AND DUP4 MSTORE DUP3 ADD SWAP3 SWAP1 SWAP3 MSTORE PUSH1 0x40 ADD SWAP1 KECCAK256 SLOAD PUSH2 0xFFFF AND GT ISZERO PUSH2 0xB69 JUMPI PUSH2 0xB69 PUSH1 0x1 DUP3 DUP2 SLOAD DUP2 LT PUSH2 0xAF9 JUMPI PUSH2 0xAF9 PUSH2 0x18B6 JUMP JUMPDEST PUSH1 0x0 SWAP2 DUP3 MSTORE PUSH1 0x20 DUP3 KECCAK256 ADD SLOAD PUSH1 0x1 DUP1 SLOAD PUSH1 0x1 PUSH1 0x1 PUSH1 0xA0 SHL SUB SWAP1 SWAP3 AND SWAP3 PUSH2 0x3E8 SWAP3 PUSH1 0x2 SWAP3 SWAP1 DUP8 SWAP1 DUP2 LT PUSH2 0xB2C JUMPI PUSH2 0xB2C PUSH2 0x18B6 JUMP JUMPDEST PUSH1 0x0 SWAP2 DUP3 MSTORE PUSH1 0x20 DUP1 DUP4 KECCAK256 SWAP1 SWAP2 ADD SLOAD PUSH1 0x1 PUSH1 0x1 PUSH1 0xA0 SHL SUB AND DUP4 MSTORE DUP3 ADD SWAP3 SWAP1 SWAP3 MSTORE PUSH1 0x40 ADD SWAP1 KECCAK256 SLOAD PUSH2 0xB5F SWAP1 PUSH2 0xFFFF AND DUP7 PUSH2 0x1980 JUMP JUMPDEST PUSH2 0x7C9 SWAP2 SWAP1 PUSH2 0x199D JUMP JUMPDEST DUP1 PUSH2 0xB73 DUP2 PUSH2 0x19BF JUMP JUMPDEST SWAP2 POP POP PUSH2 0xA91 JUMP JUMPDEST POP PUSH2 0xB88 PUSH1 0x5 CALLER DUP4 PUSH2 0xEEA JUMP JUMPDEST PUSH1 0x40 MLOAD DUP2 DUP2 MSTORE CALLER SWAP1 PUSH32 0xC55650CCDA1011E1CDC769B1FBF546EBB8C97800B6072B49E06CD560305B1D67 SWAP1 PUSH1 0x20 ADD PUSH1 0x40 MLOAD DUP1 SWAP2 SUB SWAP1 LOG2 POP JUMP JUMPDEST PUSH1 0x1 DUP2 DUP2 SLOAD DUP2 LT PUSH2 0xBD0 JUMPI PUSH1 0x0 DUP1 REVERT JUMPDEST PUSH1 0x0 SWAP2 DUP3 MSTORE PUSH1 0x20 SWAP1 SWAP2 KECCAK256 ADD SLOAD PUSH1 0x1 PUSH1 0x1 PUSH1 0xA0 SHL SUB AND SWAP1 POP DUP2 JUMP JUMPDEST PUSH2 0xBF2 PUSH2 0xFCF JUMP JUMPDEST PUSH1 0xA SLOAD PUSH1 0xFF AND PUSH1 0x3 DUP2 GT ISZERO PUSH2 0xC09 JUMPI PUSH2 0xC09 PUSH2 0x15CD JUMP JUMPDEST DUP2 GT DUP1 ISZERO PUSH2 0xC17 JUMPI POP PUSH1 0x4 DUP2 LT JUMPDEST PUSH2 0xC56 JUMPI PUSH1 0x40 MLOAD PUSH3 0x461BCD PUSH1 0xE5 SHL DUP2 MSTORE PUSH1 0x20 PUSH1 0x4 DUP3 ADD MSTORE PUSH1 0x10 PUSH1 0x24 DUP3 ADD MSTORE PUSH16 0x696E636F727265637420737461747573 PUSH1 0x80 SHL PUSH1 0x44 DUP3 ADD MSTORE PUSH1 0x64 ADD PUSH2 0x38C JUMP JUMPDEST PUSH1 0xA SLOAD DUP2 SWAP1 PUSH1 0xFF AND PUSH1 0x3 DUP2 GT ISZERO PUSH2 0xC6F JUMPI PUSH2 0xC6F PUSH2 0x15CD JUMP JUMPDEST PUSH1 0x40 MLOAD PUSH32 0x150B944D2F668FB8C44FA57A4DD1C95F72D46A1EFEA6A92A497A002CF491F47B SWAP1 PUSH1 0x0 SWAP1 LOG3 DUP1 PUSH1 0x3 DUP2 GT ISZERO PUSH2 0xCAA JUMPI PUSH2 0xCAA PUSH2 0x15CD JUMP JUMPDEST PUSH1 0xA DUP1 SLOAD PUSH1 0xFF NOT AND PUSH1 0x1 DUP4 PUSH1 0x3 DUP2 GT ISZERO PUSH2 0xCC6 JUMPI PUSH2 0xCC6 PUSH2 0x15CD JUMP JUMPDEST MUL OR SWAP1 SSTORE POP POP JUMP JUMPDEST PUSH2 0xCD6 PUSH2 0xFCF JUMP JUMPDEST DUP2 MLOAD DUP4 MLOAD EQ PUSH2 0xD31 JUMPI PUSH1 0x40 MLOAD PUSH3 0x461BCD PUSH1 0xE5 SHL DUP2 MSTORE PUSH1 0x20 PUSH1 0x4 DUP3 ADD MSTORE PUSH1 0x21 PUSH1 0x24 DUP3 ADD MSTORE PUSH32 0x6E6F742073616D6520726563656976657220616E6420726174696F20636F756E PUSH1 0x44 DUP3 ADD MSTORE PUSH1 0x1D PUSH1 0xFA SHL PUSH1 0x64 DUP3 ADD MSTORE PUSH1 0x84 ADD PUSH2 0x38C JUMP JUMPDEST DUP3 MLOAD PUSH2 0xD44 SWAP1 PUSH1 0x1 SWAP1 PUSH1 0x20 DUP7 ADD SWAP1 PUSH2 0x1553 JUMP JUMPDEST POP PUSH1 0x0 DUP1 JUMPDEST DUP5 MLOAD DUP2 LT ISZERO PUSH2 0xDFD JUMPI DUP4 DUP2 DUP2 MLOAD DUP2 LT PUSH2 0xD64 JUMPI PUSH2 0xD64 PUSH2 0x18B6 JUMP JUMPDEST PUSH1 0x20 MUL PUSH1 0x20 ADD ADD MLOAD PUSH1 0x2 PUSH1 0x0 DUP8 DUP5 DUP2 MLOAD DUP2 LT PUSH2 0xD82 JUMPI PUSH2 0xD82 PUSH2 0x18B6 JUMP JUMPDEST PUSH1 0x20 MUL PUSH1 0x20 ADD ADD MLOAD PUSH1 0x1 PUSH1 0x1 PUSH1 0xA0 SHL SUB AND PUSH1 0x1 PUSH1 0x1 PUSH1 0xA0 SHL SUB AND DUP2 MSTORE PUSH1 0x20 ADD SWAP1 DUP2 MSTORE PUSH1 0x20 ADD PUSH1 0x0 KECCAK256 PUSH1 0x0 PUSH2 0x100 EXP DUP2 SLOAD DUP2 PUSH2 0xFFFF MUL NOT AND SWAP1 DUP4 PUSH2 0xFFFF AND MUL OR SWAP1 SSTORE POP DUP4 DUP2 DUP2 MLOAD DUP2 LT PUSH2 0xDD6 JUMPI PUSH2 0xDD6 PUSH2 0x18B6 JUMP JUMPDEST PUSH1 0x20 MUL PUSH1 0x20 ADD ADD MLOAD DUP3 PUSH2 0xDE9 SWAP2 SWAP1 PUSH2 0x1B07 JUMP JUMPDEST SWAP2 POP DUP1 PUSH2 0xDF5 DUP2 PUSH2 0x19BF JUMP JUMPDEST SWAP2 POP POP PUSH2 0xD49 JUMP JUMPDEST POP PUSH2 0xE0A DUP2 PUSH2 0x3E8 PUSH2 0x1B29 JUMP JUMPDEST PUSH1 0x3 DUP1 SLOAD PUSH2 0xFFFF NOT AND PUSH2 0xFFFF SWAP3 SWAP1 SWAP3 AND SWAP2 SWAP1 SWAP2 OR SWAP1 SSTORE PUSH1 0x4 DUP3 SWAP1 SSTORE PUSH1 0xA DUP1 SLOAD PUSH1 0xFF NOT AND SWAP1 SSTORE PUSH1 0x40 MLOAD PUSH32 0xB8FFA35FABF870464B1F28AC36F392A134DB3FB2C6E2EE2F022C5A49E242BAC0 SWAP1 PUSH2 0xE63 SWAP1 DUP7 SWAP1 DUP7 SWAP1 DUP7 SWAP1 PUSH2 0x1B44 JUMP JUMPDEST PUSH1 0x40 MLOAD DUP1 SWAP2 SUB SWAP1 LOG1 POP POP POP POP JUMP JUMPDEST PUSH2 0xE79 PUSH2 0xFCF JUMP JUMPDEST PUSH1 0x1 PUSH1 0x1 PUSH1 0xA0 SHL SUB DUP2 AND PUSH2 0xEDE JUMPI PUSH1 0x40 MLOAD PUSH3 0x461BCD PUSH1 0xE5 SHL DUP2 MSTORE PUSH1 0x20 PUSH1 0x4 DUP3 ADD MSTORE PUSH1 0x26 PUSH1 0x24 DUP3 ADD MSTORE PUSH32 0x4F776E61626C653A206E6577206F776E657220697320746865207A65726F2061 PUSH1 0x44 DUP3 ADD MSTORE PUSH6 0x646472657373 PUSH1 0xD0 SHL PUSH1 0x64 DUP3 ADD MSTORE PUSH1 0x84 ADD PUSH2 0x38C JUMP JUMPDEST PUSH2 0xEE7 DUP2 PUSH2 0x1263 JUMP JUMPDEST POP JUMP JUMPDEST PUSH1 0x1 PUSH1 0x1 PUSH1 0xA0 SHL SUB DUP3 AND PUSH1 0x0 SWAP1 DUP2 MSTORE PUSH1 0x3 DUP5 ADD PUSH1 0x20 MSTORE PUSH1 0x40 SWAP1 KECCAK256 SLOAD PUSH1 0xFF AND ISZERO PUSH2 0xF42 JUMPI PUSH1 0x1 PUSH1 0x1 PUSH1 0xA0 SHL SUB DUP3 AND PUSH1 0x0 SWAP1 DUP2 MSTORE PUSH1 0x1 DUP5 ADD PUSH1 0x20 MSTORE PUSH1 0x40 DUP2 KECCAK256 DUP1 SLOAD DUP4 SWAP3 SWAP1 PUSH2 0xF37 SWAP1 DUP5 SWAP1 PUSH2 0x1BA8 JUMP JUMPDEST SWAP1 SWAP2 SSTORE POP PUSH2 0xFCA SWAP1 POP JUMP JUMPDEST PUSH1 0x1 PUSH1 0x1 PUSH1 0xA0 SHL SUB DUP3 AND PUSH1 0x0 SWAP1 DUP2 MSTORE PUSH1 0x3 DUP5 ADD PUSH1 0x20 SWAP1 DUP2 MSTORE PUSH1 0x40 DUP1 DUP4 KECCAK256 DUP1 SLOAD PUSH1 0xFF NOT AND PUSH1 0x1 SWAP1 DUP2 OR SWAP1 SWAP2 SSTORE DUP7 ADD SWAP1 SWAP2 MSTORE DUP2 KECCAK256 DUP1 SLOAD DUP4 SWAP3 SWAP1 PUSH2 0xF84 SWAP1 DUP5 SWAP1 PUSH2 0x1BA8 JUMP JUMPDEST SWAP1 SWAP2 SSTORE POP POP DUP3 SLOAD PUSH1 0x1 PUSH1 0x1 PUSH1 0xA0 SHL SUB DUP4 AND PUSH1 0x0 DUP2 DUP2 MSTORE PUSH1 0x2 DUP7 ADD PUSH1 0x20 SWAP1 DUP2 MSTORE PUSH1 0x40 DUP3 KECCAK256 DUP5 SWAP1 SSTORE PUSH1 0x1 DUP5 ADD DUP8 SSTORE DUP7 DUP3 MSTORE SWAP1 KECCAK256 SWAP1 SWAP2 ADD DUP1 SLOAD PUSH1 0x1 PUSH1 0x1 PUSH1 0xA0 SHL SUB NOT AND SWAP1 SWAP2 OR SWAP1 SSTORE JUMPDEST POP POP POP JUMP JUMPDEST CALLER PUSH2 0xFD8 PUSH2 0xA00 JUMP JUMPDEST PUSH1 0x1 PUSH1 0x1 PUSH1 0xA0 SHL SUB AND EQ PUSH2 0x9FE JUMPI PUSH1 0x40 MLOAD PUSH3 0x461BCD PUSH1 0xE5 SHL DUP2 MSTORE PUSH1 0x20 PUSH1 0x4 DUP3 ADD DUP2 SWAP1 MSTORE PUSH1 0x24 DUP3 ADD MSTORE PUSH32 0x4F776E61626C653A2063616C6C6572206973206E6F7420746865206F776E6572 PUSH1 0x44 DUP3 ADD MSTORE PUSH1 0x64 ADD PUSH2 0x38C JUMP JUMPDEST PUSH1 0x40 MLOAD PUSH1 0x1 PUSH1 0x1 PUSH1 0xA0 SHL SUB DUP4 AND PUSH1 0x24 DUP3 ADD MSTORE PUSH1 0x44 DUP2 ADD DUP3 SWAP1 MSTORE PUSH2 0xFCA SWAP1 DUP5 SWAP1 PUSH4 0xA9059CBB PUSH1 0xE0 SHL SWAP1 PUSH1 0x64 ADD JUMPDEST PUSH1 0x40 DUP1 MLOAD PUSH1 0x1F NOT DUP2 DUP5 SUB ADD DUP2 MSTORE SWAP2 SWAP1 MSTORE PUSH1 0x20 DUP2 ADD DUP1 MLOAD PUSH1 0x1 PUSH1 0x1 PUSH1 0xE0 SHL SUB AND PUSH1 0x1 PUSH1 0x1 PUSH1 0xE0 SHL SUB NOT SWAP1 SWAP4 AND SWAP3 SWAP1 SWAP3 OR SWAP1 SWAP2 MSTORE PUSH2 0x12F1 JUMP JUMPDEST PUSH1 0x1 PUSH1 0x1 PUSH1 0xA0 SHL SUB AND PUSH1 0x0 SWAP1 DUP2 MSTORE PUSH1 0x1 DUP3 ADD PUSH1 0x20 SWAP1 DUP2 MSTORE PUSH1 0x40 DUP1 DUP4 KECCAK256 SLOAD PUSH1 0x3 DUP6 ADD DUP4 MSTORE DUP2 DUP5 KECCAK256 SLOAD PUSH1 0x4 SWAP1 SWAP6 ADD SWAP1 SWAP3 MSTORE SWAP1 SWAP2 KECCAK256 SLOAD SWAP1 SWAP3 PUSH1 0xFF SWAP3 DUP4 AND SWAP3 SWAP1 SWAP2 AND SWAP1 JUMP JUMPDEST PUSH1 0x1 PUSH1 0x1 PUSH1 0xA0 SHL SUB DUP2 AND PUSH1 0x0 SWAP1 DUP2 MSTORE PUSH1 0x3 DUP4 ADD PUSH1 0x20 MSTORE PUSH1 0x40 SWAP1 KECCAK256 SLOAD PUSH1 0xFF AND PUSH2 0x1128 JUMPI PUSH1 0x40 MLOAD PUSH3 0x461BCD PUSH1 0xE5 SHL DUP2 MSTORE PUSH1 0x20 PUSH1 0x4 DUP3 ADD MSTORE PUSH1 0x9 PUSH1 0x24 DUP3 ADD MSTORE PUSH9 0x1B9BC81A5B9D995CDD PUSH1 0xBA SHL PUSH1 0x44 DUP3 ADD MSTORE PUSH1 0x64 ADD PUSH2 0x38C JUMP JUMPDEST PUSH1 0x1 PUSH1 0x1 PUSH1 0xA0 SHL SUB DUP2 AND PUSH1 0x0 SWAP1 DUP2 MSTORE PUSH1 0x4 DUP4 ADD PUSH1 0x20 MSTORE PUSH1 0x40 SWAP1 KECCAK256 SLOAD PUSH1 0xFF AND ISZERO PUSH2 0x1185 JUMPI PUSH1 0x40 MLOAD PUSH3 0x461BCD PUSH1 0xE5 SHL DUP2 MSTORE PUSH1 0x20 PUSH1 0x4 DUP3 ADD MSTORE PUSH1 0xF PUSH1 0x24 DUP3 ADD MSTORE PUSH15 0x185B1C9958591E4818DB185A5B5959 PUSH1 0x8A SHL PUSH1 0x44 DUP3 ADD MSTORE PUSH1 0x64 ADD PUSH2 0x38C JUMP JUMPDEST PUSH1 0x1 PUSH1 0x1 PUSH1 0xA0 SHL SUB DUP2 AND PUSH1 0x0 SWAP1 DUP2 MSTORE PUSH1 0x1 DUP4 ADD PUSH1 0x20 MSTORE PUSH1 0x40 SWAP1 KECCAK256 SLOAD PUSH2 0x11D6 JUMPI PUSH1 0x40 MLOAD PUSH3 0x461BCD PUSH1 0xE5 SHL DUP2 MSTORE PUSH1 0x20 PUSH1 0x4 DUP3 ADD MSTORE PUSH1 0x7 PUSH1 0x24 DUP3 ADD MSTORE PUSH7 0x76616C75653E3 PUSH1 0xCC SHL PUSH1 0x44 DUP3 ADD MSTORE PUSH1 0x64 ADD PUSH2 0x38C JUMP JUMPDEST PUSH1 0x1 PUSH1 0x1 PUSH1 0xA0 SHL SUB AND PUSH1 0x0 SWAP1 DUP2 MSTORE PUSH1 0x4 SWAP1 SWAP2 ADD PUSH1 0x20 MSTORE PUSH1 0x40 SWAP1 KECCAK256 DUP1 SLOAD PUSH1 0xFF NOT AND PUSH1 0x1 OR SWAP1 SSTORE JUMP JUMPDEST PUSH1 0x60 DUP2 PUSH1 0x0 ADD DUP1 SLOAD DUP1 PUSH1 0x20 MUL PUSH1 0x20 ADD PUSH1 0x40 MLOAD SWAP1 DUP2 ADD PUSH1 0x40 MSTORE DUP1 SWAP3 SWAP2 SWAP1 DUP2 DUP2 MSTORE PUSH1 0x20 ADD DUP3 DUP1 SLOAD DUP1 ISZERO PUSH2 0x1257 JUMPI PUSH1 0x20 MUL DUP3 ADD SWAP2 SWAP1 PUSH1 0x0 MSTORE PUSH1 0x20 PUSH1 0x0 KECCAK256 SWAP1 JUMPDEST DUP2 SLOAD PUSH1 0x1 PUSH1 0x1 PUSH1 0xA0 SHL SUB AND DUP2 MSTORE PUSH1 0x1 SWAP1 SWAP2 ADD SWAP1 PUSH1 0x20 ADD DUP1 DUP4 GT PUSH2 0x1239 JUMPI JUMPDEST POP POP POP POP POP SWAP1 POP SWAP2 SWAP1 POP JUMP JUMPDEST PUSH1 0x0 DUP1 SLOAD PUSH1 0x1 PUSH1 0x1 PUSH1 0xA0 SHL SUB DUP4 DUP2 AND PUSH1 0x1 PUSH1 0x1 PUSH1 0xA0 SHL SUB NOT DUP4 AND DUP2 OR DUP5 SSTORE PUSH1 0x40 MLOAD SWAP2 SWAP1 SWAP3 AND SWAP3 DUP4 SWAP2 PUSH32 0x8BE0079C531659141344CD1FD0A4F28419497F9722A3DAAFE3B4186F6B6457E0 SWAP2 SWAP1 LOG3 POP POP JUMP JUMPDEST PUSH1 0x40 MLOAD PUSH1 0x1 PUSH1 0x1 PUSH1 0xA0 SHL SUB DUP1 DUP6 AND PUSH1 0x24 DUP4 ADD MSTORE DUP4 AND PUSH1 0x44 DUP3 ADD MSTORE PUSH1 0x64 DUP2 ADD DUP3 SWAP1 MSTORE PUSH2 0x12EB SWAP1 DUP6 SWAP1 PUSH4 0x23B872DD PUSH1 0xE0 SHL SWAP1 PUSH1 0x84 ADD PUSH2 0x105A JUMP JUMPDEST POP POP POP POP JUMP JUMPDEST PUSH1 0x0 PUSH2 0x1346 DUP3 PUSH1 0x40 MLOAD DUP1 PUSH1 0x40 ADD PUSH1 0x40 MSTORE DUP1 PUSH1 0x20 DUP2 MSTORE PUSH1 0x20 ADD PUSH32 0x5361666545524332303A206C6F772D6C6576656C2063616C6C206661696C6564 DUP2 MSTORE POP DUP6 PUSH1 0x1 PUSH1 0x1 PUSH1 0xA0 SHL SUB AND PUSH2 0x13C3 SWAP1 SWAP3 SWAP2 SWAP1 PUSH4 0xFFFFFFFF AND JUMP JUMPDEST DUP1 MLOAD SWAP1 SWAP2 POP ISZERO PUSH2 0xFCA JUMPI DUP1 DUP1 PUSH1 0x20 ADD SWAP1 MLOAD DUP2 ADD SWAP1 PUSH2 0x1364 SWAP2 SWAP1 PUSH2 0x1BBB JUMP JUMPDEST PUSH2 0xFCA JUMPI PUSH1 0x40 MLOAD PUSH3 0x461BCD PUSH1 0xE5 SHL DUP2 MSTORE PUSH1 0x20 PUSH1 0x4 DUP3 ADD MSTORE PUSH1 0x2A PUSH1 0x24 DUP3 ADD MSTORE PUSH32 0x5361666545524332303A204552433230206F7065726174696F6E20646964206E PUSH1 0x44 DUP3 ADD MSTORE PUSH10 0x1BDD081CDD58D8D95959 PUSH1 0xB2 SHL PUSH1 0x64 DUP3 ADD MSTORE PUSH1 0x84 ADD PUSH2 0x38C JUMP JUMPDEST PUSH1 0x60 PUSH2 0x13D2 DUP5 DUP5 PUSH1 0x0 DUP6 PUSH2 0x13DA JUMP JUMPDEST SWAP5 SWAP4 POP POP POP POP JUMP JUMPDEST PUSH1 0x60 DUP3 SELFBALANCE LT ISZERO PUSH2 0x143B JUMPI PUSH1 0x40 MLOAD PUSH3 0x461BCD PUSH1 0xE5 SHL DUP2 MSTORE PUSH1 0x20 PUSH1 0x4 DUP3 ADD MSTORE PUSH1 0x26 PUSH1 0x24 DUP3 ADD MSTORE PUSH32 0x416464726573733A20696E73756666696369656E742062616C616E636520666F PUSH1 0x44 DUP3 ADD MSTORE PUSH6 0x1C8818D85B1B PUSH1 0xD2 SHL PUSH1 0x64 DUP3 ADD MSTORE PUSH1 0x84 ADD PUSH2 0x38C JUMP JUMPDEST PUSH1 0x0 DUP1 DUP7 PUSH1 0x1 PUSH1 0x1 PUSH1 0xA0 SHL SUB AND DUP6 DUP8 PUSH1 0x40 MLOAD PUSH2 0x1457 SWAP2 SWAP1 PUSH2 0x1C01 JUMP JUMPDEST PUSH1 0x0 PUSH1 0x40 MLOAD DUP1 DUP4 SUB DUP2 DUP6 DUP8 GAS CALL SWAP3 POP POP POP RETURNDATASIZE DUP1 PUSH1 0x0 DUP2 EQ PUSH2 0x1494 JUMPI PUSH1 0x40 MLOAD SWAP2 POP PUSH1 0x1F NOT PUSH1 0x3F RETURNDATASIZE ADD AND DUP3 ADD PUSH1 0x40 MSTORE RETURNDATASIZE DUP3 MSTORE RETURNDATASIZE PUSH1 0x0 PUSH1 0x20 DUP5 ADD RETURNDATACOPY PUSH2 0x1499 JUMP JUMPDEST PUSH1 0x60 SWAP2 POP JUMPDEST POP SWAP2 POP SWAP2 POP PUSH2 0x14AA DUP8 DUP4 DUP4 DUP8 PUSH2 0x14B5 JUMP JUMPDEST SWAP8 SWAP7 POP POP POP POP POP POP POP JUMP JUMPDEST PUSH1 0x60 DUP4 ISZERO PUSH2 0x1524 JUMPI DUP3 MLOAD PUSH1 0x0 SUB PUSH2 0x151D JUMPI PUSH1 0x1 PUSH1 0x1 PUSH1 0xA0 SHL SUB DUP6 AND EXTCODESIZE PUSH2 0x151D JUMPI PUSH1 0x40 MLOAD PUSH3 0x461BCD PUSH1 0xE5 SHL DUP2 MSTORE PUSH1 0x20 PUSH1 0x4 DUP3 ADD MSTORE PUSH1 0x1D PUSH1 0x24 DUP3 ADD MSTORE PUSH32 0x416464726573733A2063616C6C20746F206E6F6E2D636F6E7472616374000000 PUSH1 0x44 DUP3 ADD MSTORE PUSH1 0x64 ADD PUSH2 0x38C JUMP JUMPDEST POP DUP2 PUSH2 0x13D2 JUMP JUMPDEST PUSH2 0x13D2 DUP4 DUP4 DUP2 MLOAD ISZERO PUSH2 0x1539 JUMPI DUP2 MLOAD DUP1 DUP4 PUSH1 0x20 ADD REVERT JUMPDEST DUP1 PUSH1 0x40 MLOAD PUSH3 0x461BCD PUSH1 0xE5 SHL DUP2 MSTORE PUSH1 0x4 ADD PUSH2 0x38C SWAP2 SWAP1 PUSH2 0x1C1D JUMP JUMPDEST DUP3 DUP1 SLOAD DUP3 DUP3 SSTORE SWAP1 PUSH1 0x0 MSTORE PUSH1 0x20 PUSH1 0x0 KECCAK256 SWAP1 DUP2 ADD SWAP3 DUP3 ISZERO PUSH2 0x15A8 JUMPI SWAP2 PUSH1 0x20 MUL DUP3 ADD JUMPDEST DUP3 DUP2 GT ISZERO PUSH2 0x15A8 JUMPI DUP3 MLOAD DUP3 SLOAD PUSH1 0x1 PUSH1 0x1 PUSH1 0xA0 SHL SUB NOT AND PUSH1 0x1 PUSH1 0x1 PUSH1 0xA0 SHL SUB SWAP1 SWAP2 AND OR DUP3 SSTORE PUSH1 0x20 SWAP1 SWAP3 ADD SWAP2 PUSH1 0x1 SWAP1 SWAP2 ADD SWAP1 PUSH2 0x1573 JUMP JUMPDEST POP PUSH2 0x15B4 SWAP3 SWAP2 POP PUSH2 0x15B8 JUMP JUMPDEST POP SWAP1 JUMP JUMPDEST JUMPDEST DUP1 DUP3 GT ISZERO PUSH2 0x15B4 JUMPI PUSH1 0x0 DUP2 SSTORE PUSH1 0x1 ADD PUSH2 0x15B9 JUMP JUMPDEST PUSH4 0x4E487B71 PUSH1 0xE0 SHL PUSH1 0x0 MSTORE PUSH1 0x21 PUSH1 0x4 MSTORE PUSH1 0x24 PUSH1 0x0 REVERT JUMPDEST PUSH1 0x20 DUP2 ADD PUSH1 0x4 DUP4 LT PUSH2 0x1605 JUMPI PUSH4 0x4E487B71 PUSH1 0xE0 SHL PUSH1 0x0 MSTORE PUSH1 0x21 PUSH1 0x4 MSTORE PUSH1 0x24 PUSH1 0x0 REVERT JUMPDEST SWAP2 SWAP1 MSTORE SWAP1 JUMP JUMPDEST PUSH1 0x1 PUSH1 0x1 PUSH1 0xA0 SHL SUB SWAP2 SWAP1 SWAP2 AND DUP2 MSTORE PUSH1 0x20 ADD SWAP1 JUMP JUMPDEST PUSH1 0x1 PUSH1 0x1 PUSH1 0xA0 SHL SUB DUP2 AND DUP2 EQ PUSH2 0xEE7 JUMPI PUSH1 0x0 DUP1 REVERT JUMPDEST PUSH1 0x0 PUSH1 0x20 DUP3 DUP5 SUB SLT ISZERO PUSH2 0x1646 JUMPI PUSH1 0x0 DUP1 REVERT JUMPDEST DUP2 CALLDATALOAD PUSH2 0x1651 DUP2 PUSH2 0x161F JUMP JUMPDEST SWAP4 SWAP3 POP POP POP JUMP JUMPDEST PUSH1 0x0 DUP2 MLOAD DUP1 DUP5 MSTORE PUSH1 0x20 DUP1 DUP6 ADD SWAP5 POP DUP1 DUP5 ADD PUSH1 0x0 JUMPDEST DUP4 DUP2 LT ISZERO PUSH2 0x1691 JUMPI DUP2 MLOAD PUSH1 0x1 PUSH1 0x1 PUSH1 0xA0 SHL SUB AND DUP8 MSTORE SWAP6 DUP3 ADD SWAP6 SWAP1 DUP3 ADD SWAP1 PUSH1 0x1 ADD PUSH2 0x166C JUMP JUMPDEST POP SWAP5 SWAP6 SWAP5 POP POP POP POP POP JUMP JUMPDEST PUSH1 0x20 DUP2 MSTORE PUSH1 0x0 PUSH2 0x1651 PUSH1 0x20 DUP4 ADD DUP5 PUSH2 0x1658 JUMP JUMPDEST PUSH1 0x0 PUSH1 0x20 DUP3 DUP5 SUB SLT ISZERO PUSH2 0x16C1 JUMPI PUSH1 0x0 DUP1 REVERT JUMPDEST POP CALLDATALOAD SWAP2 SWAP1 POP JUMP JUMPDEST PUSH4 0x4E487B71 PUSH1 0xE0 SHL PUSH1 0x0 MSTORE PUSH1 0x41 PUSH1 0x4 MSTORE PUSH1 0x24 PUSH1 0x0 REVERT JUMPDEST PUSH1 0x40 MLOAD PUSH1 0x1F DUP3 ADD PUSH1 0x1F NOT AND DUP2 ADD PUSH1 0x1 PUSH1 0x1 PUSH1 0x40 SHL SUB DUP2 GT DUP3 DUP3 LT OR ISZERO PUSH2 0x1706 JUMPI PUSH2 0x1706 PUSH2 0x16C8 JUMP JUMPDEST PUSH1 0x40 MSTORE SWAP2 SWAP1 POP JUMP JUMPDEST PUSH1 0x0 PUSH1 0x1 PUSH1 0x1 PUSH1 0x40 SHL SUB DUP3 GT ISZERO PUSH2 0x1727 JUMPI PUSH2 0x1727 PUSH2 0x16C8 JUMP JUMPDEST POP PUSH1 0x5 SHL PUSH1 0x20 ADD SWAP1 JUMP JUMPDEST PUSH1 0x0 DUP3 PUSH1 0x1F DUP4 ADD SLT PUSH2 0x1742 JUMPI PUSH1 0x0 DUP1 REVERT JUMPDEST DUP2 CALLDATALOAD PUSH1 0x20 PUSH2 0x1757 PUSH2 0x1752 DUP4 PUSH2 0x170E JUMP JUMPDEST PUSH2 0x16DE JUMP JUMPDEST DUP3 DUP2 MSTORE PUSH1 0x5 SWAP3 SWAP1 SWAP3 SHL DUP5 ADD DUP2 ADD SWAP2 DUP2 DUP2 ADD SWAP1 DUP7 DUP5 GT ISZERO PUSH2 0x1776 JUMPI PUSH1 0x0 DUP1 REVERT JUMPDEST DUP3 DUP7 ADD JUMPDEST DUP5 DUP2 LT ISZERO PUSH2 0x17A2 JUMPI DUP1 CALLDATALOAD PUSH2 0xFFFF DUP2 AND DUP2 EQ PUSH2 0x1795 JUMPI PUSH1 0x0 DUP1 DUP2 REVERT JUMPDEST DUP4 MSTORE SWAP2 DUP4 ADD SWAP2 DUP4 ADD PUSH2 0x177A JUMP JUMPDEST POP SWAP7 SWAP6 POP POP POP POP POP POP JUMP JUMPDEST PUSH1 0x0 DUP1 PUSH1 0x0 PUSH1 0x60 DUP5 DUP7 SUB SLT ISZERO PUSH2 0x17C2 JUMPI PUSH1 0x0 DUP1 REVERT JUMPDEST DUP4 CALLDATALOAD PUSH1 0x1 PUSH1 0x1 PUSH1 0x40 SHL SUB DUP1 DUP3 GT ISZERO PUSH2 0x17D9 JUMPI PUSH1 0x0 DUP1 REVERT JUMPDEST DUP2 DUP7 ADD SWAP2 POP DUP7 PUSH1 0x1F DUP4 ADD SLT PUSH2 0x17ED JUMPI PUSH1 0x0 DUP1 REVERT JUMPDEST DUP2 CALLDATALOAD PUSH1 0x20 PUSH2 0x17FD PUSH2 0x1752 DUP4 PUSH2 0x170E JUMP JUMPDEST DUP3 DUP2 MSTORE PUSH1 0x5 SWAP3 SWAP1 SWAP3 SHL DUP5 ADD DUP2 ADD SWAP2 DUP2 DUP2 ADD SWAP1 DUP11 DUP5 GT ISZERO PUSH2 0x181C JUMPI PUSH1 0x0 DUP1 REVERT JUMPDEST SWAP5 DUP3 ADD SWAP5 JUMPDEST DUP4 DUP7 LT ISZERO PUSH2 0x1843 JUMPI DUP6 CALLDATALOAD PUSH2 0x1834 DUP2 PUSH2 0x161F JUMP JUMPDEST DUP3 MSTORE SWAP5 DUP3 ADD SWAP5 SWAP1 DUP3 ADD SWAP1 PUSH2 0x1821 JUMP JUMPDEST SWAP8 POP POP DUP8 ADD CALLDATALOAD SWAP3 POP POP DUP1 DUP3 GT ISZERO PUSH2 0x1859 JUMPI PUSH1 0x0 DUP1 REVERT JUMPDEST POP PUSH2 0x1866 DUP7 DUP3 DUP8 ADD PUSH2 0x1731 JUMP JUMPDEST SWAP3 POP POP PUSH1 0x40 DUP5 ADD CALLDATALOAD SWAP1 POP SWAP3 POP SWAP3 POP SWAP3 JUMP JUMPDEST PUSH1 0x20 DUP1 DUP3 MSTORE PUSH1 0x8 SWAP1 DUP3 ADD MSTORE PUSH8 0x6E6F74206C697665 PUSH1 0xC0 SHL PUSH1 0x40 DUP3 ADD MSTORE PUSH1 0x60 ADD SWAP1 JUMP JUMPDEST PUSH1 0x0 PUSH1 0x20 DUP3 DUP5 SUB SLT ISZERO PUSH2 0x18AB JUMPI PUSH1 0x0 DUP1 REVERT JUMPDEST DUP2 MLOAD PUSH2 0x1651 DUP2 PUSH2 0x161F JUMP JUMPDEST PUSH4 0x4E487B71 PUSH1 0xE0 SHL PUSH1 0x0 MSTORE PUSH1 0x32 PUSH1 0x4 MSTORE PUSH1 0x24 PUSH1 0x0 REVERT JUMPDEST DUP3 DUP2 MSTORE PUSH1 0x40 PUSH1 0x20 DUP3 ADD MSTORE PUSH1 0x0 PUSH2 0x13D2 PUSH1 0x40 DUP4 ADD DUP5 PUSH2 0x1658 JUMP JUMPDEST PUSH1 0x0 PUSH1 0x20 DUP1 DUP4 DUP6 SUB SLT ISZERO PUSH2 0x18F8 JUMPI PUSH1 0x0 DUP1 REVERT JUMPDEST DUP3 MLOAD PUSH1 0x1 PUSH1 0x1 PUSH1 0x40 SHL SUB DUP2 GT ISZERO PUSH2 0x190E JUMPI PUSH1 0x0 DUP1 REVERT JUMPDEST DUP4 ADD PUSH1 0x1F DUP2 ADD DUP6 SGT PUSH2 0x191F JUMPI PUSH1 0x0 DUP1 REVERT JUMPDEST DUP1 MLOAD PUSH2 0x192D PUSH2 0x1752 DUP3 PUSH2 0x170E JUMP JUMPDEST DUP2 DUP2 MSTORE PUSH1 0x5 SWAP2 SWAP1 SWAP2 SHL DUP3 ADD DUP4 ADD SWAP1 DUP4 DUP2 ADD SWAP1 DUP8 DUP4 GT ISZERO PUSH2 0x194C JUMPI PUSH1 0x0 DUP1 REVERT JUMPDEST SWAP3 DUP5 ADD SWAP3 JUMPDEST DUP3 DUP5 LT ISZERO PUSH2 0x14AA JUMPI DUP4 MLOAD DUP3 MSTORE SWAP3 DUP5 ADD SWAP3 SWAP1 DUP5 ADD SWAP1 PUSH2 0x1951 JUMP JUMPDEST PUSH4 0x4E487B71 PUSH1 0xE0 SHL PUSH1 0x0 MSTORE PUSH1 0x11 PUSH1 0x4 MSTORE PUSH1 0x24 PUSH1 0x0 REVERT JUMPDEST DUP1 DUP3 MUL DUP2 ISZERO DUP3 DUP3 DIV DUP5 EQ OR PUSH2 0x1997 JUMPI PUSH2 0x1997 PUSH2 0x196A JUMP JUMPDEST SWAP3 SWAP2 POP POP JUMP JUMPDEST PUSH1 0x0 DUP3 PUSH2 0x19BA JUMPI PUSH4 0x4E487B71 PUSH1 0xE0 SHL PUSH1 0x0 MSTORE PUSH1 0x12 PUSH1 0x4 MSTORE PUSH1 0x24 PUSH1 0x0 REVERT JUMPDEST POP DIV SWAP1 JUMP JUMPDEST PUSH1 0x0 PUSH1 0x1 DUP3 ADD PUSH2 0x19D1 JUMPI PUSH2 0x19D1 PUSH2 0x196A JUMP JUMPDEST POP PUSH1 0x1 ADD SWAP1 JUMP JUMPDEST PUSH1 0x0 PUSH1 0x20 DUP3 DUP5 SUB SLT ISZERO PUSH2 0x19EA JUMPI PUSH1 0x0 DUP1 REVERT JUMPDEST POP MLOAD SWAP2 SWAP1 POP JUMP JUMPDEST PUSH1 0x0 PUSH1 0x20 DUP3 DUP5 SUB SLT ISZERO PUSH2 0x1A03 JUMPI PUSH1 0x0 DUP1 REVERT JUMPDEST DUP2 MLOAD PUSH1 0xFF DUP2 AND DUP2 EQ PUSH2 0x1651 JUMPI PUSH1 0x0 DUP1 REVERT JUMPDEST PUSH1 0x1 DUP2 DUP2 JUMPDEST DUP1 DUP6 GT ISZERO PUSH2 0x1A4F JUMPI DUP2 PUSH1 0x0 NOT DIV DUP3 GT ISZERO PUSH2 0x1A35 JUMPI PUSH2 0x1A35 PUSH2 0x196A JUMP JUMPDEST DUP1 DUP6 AND ISZERO PUSH2 0x1A42 JUMPI SWAP2 DUP2 MUL SWAP2 JUMPDEST SWAP4 DUP5 SHR SWAP4 SWAP1 DUP1 MUL SWAP1 PUSH2 0x1A19 JUMP JUMPDEST POP SWAP3 POP SWAP3 SWAP1 POP JUMP JUMPDEST PUSH1 0x0 DUP3 PUSH2 0x1A66 JUMPI POP PUSH1 0x1 PUSH2 0x1997 JUMP JUMPDEST DUP2 PUSH2 0x1A73 JUMPI POP PUSH1 0x0 PUSH2 0x1997 JUMP JUMPDEST DUP2 PUSH1 0x1 DUP2 EQ PUSH2 0x1A89 JUMPI PUSH1 0x2 DUP2 EQ PUSH2 0x1A93 JUMPI PUSH2 0x1AAF JUMP JUMPDEST PUSH1 0x1 SWAP2 POP POP PUSH2 0x1997 JUMP JUMPDEST PUSH1 0xFF DUP5 GT ISZERO PUSH2 0x1AA4 JUMPI PUSH2 0x1AA4 PUSH2 0x196A JUMP JUMPDEST POP POP PUSH1 0x1 DUP3 SHL PUSH2 0x1997 JUMP JUMPDEST POP PUSH1 0x20 DUP4 LT PUSH2 0x133 DUP4 LT AND PUSH1 0x4E DUP5 LT PUSH1 0xB DUP5 LT AND OR ISZERO PUSH2 0x1AD2 JUMPI POP DUP2 DUP2 EXP PUSH2 0x1997 JUMP JUMPDEST PUSH2 0x1ADC DUP4 DUP4 PUSH2 0x1A14 JUMP JUMPDEST DUP1 PUSH1 0x0 NOT DIV DUP3 GT ISZERO PUSH2 0x1AF0 JUMPI PUSH2 0x1AF0 PUSH2 0x196A JUMP JUMPDEST MUL SWAP4 SWAP3 POP POP POP JUMP JUMPDEST PUSH1 0x0 PUSH2 0x1651 PUSH1 0xFF DUP5 AND DUP4 PUSH2 0x1A57 JUMP JUMPDEST PUSH2 0xFFFF DUP2 DUP2 AND DUP4 DUP3 AND ADD SWAP1 DUP1 DUP3 GT ISZERO PUSH2 0x1B22 JUMPI PUSH2 0x1B22 PUSH2 0x196A JUMP JUMPDEST POP SWAP3 SWAP2 POP POP JUMP JUMPDEST PUSH2 0xFFFF DUP3 DUP2 AND DUP3 DUP3 AND SUB SWAP1 DUP1 DUP3 GT ISZERO PUSH2 0x1B22 JUMPI PUSH2 0x1B22 PUSH2 0x196A JUMP JUMPDEST PUSH1 0x60 DUP2 MSTORE PUSH1 0x0 PUSH2 0x1B57 PUSH1 0x60 DUP4 ADD DUP7 PUSH2 0x1658 JUMP JUMPDEST DUP3 DUP2 SUB PUSH1 0x20 DUP5 DUP2 ADD SWAP2 SWAP1 SWAP2 MSTORE DUP6 MLOAD DUP1 DUP4 MSTORE DUP7 DUP3 ADD SWAP3 DUP3 ADD SWAP1 PUSH1 0x0 JUMPDEST DUP2 DUP2 LT ISZERO PUSH2 0x1B92 JUMPI DUP5 MLOAD PUSH2 0xFFFF AND DUP4 MSTORE SWAP4 DUP4 ADD SWAP4 SWAP2 DUP4 ADD SWAP2 PUSH1 0x1 ADD PUSH2 0x1B72 JUMP JUMPDEST POP POP DUP1 SWAP4 POP POP POP POP DUP3 PUSH1 0x40 DUP4 ADD MSTORE SWAP5 SWAP4 POP POP POP POP JUMP JUMPDEST DUP1 DUP3 ADD DUP1 DUP3 GT ISZERO PUSH2 0x1997 JUMPI PUSH2 0x1997 PUSH2 0x196A JUMP JUMPDEST PUSH1 0x0 PUSH1 0x20 DUP3 DUP5 SUB SLT ISZERO PUSH2 0x1BCD JUMPI PUSH1 0x0 DUP1 REVERT JUMPDEST DUP2 MLOAD DUP1 ISZERO ISZERO DUP2 EQ PUSH2 0x1651 JUMPI PUSH1 0x0 DUP1 REVERT JUMPDEST PUSH1 0x0 JUMPDEST DUP4 DUP2 LT ISZERO PUSH2 0x1BF8 JUMPI DUP2 DUP2 ADD MLOAD DUP4 DUP3 ADD MSTORE PUSH1 0x20 ADD PUSH2 0x1BE0 JUMP JUMPDEST POP POP PUSH1 0x0 SWAP2 ADD MSTORE JUMP JUMPDEST PUSH1 0x0 DUP3 MLOAD PUSH2 0x1C13 DUP2 DUP5 PUSH1 0x20 DUP8 ADD PUSH2 0x1BDD JUMP JUMPDEST SWAP2 SWAP1 SWAP2 ADD SWAP3 SWAP2 POP POP JUMP JUMPDEST PUSH1 0x20 DUP2 MSTORE PUSH1 0x0 DUP3 MLOAD DUP1 PUSH1 0x20 DUP5 ADD MSTORE PUSH2 0x1C3C DUP2 PUSH1 0x40 DUP6 ADD PUSH1 0x20 DUP8 ADD PUSH2 0x1BDD JUMP JUMPDEST PUSH1 0x1F ADD PUSH1 0x1F NOT AND SWAP2 SWAP1 SWAP2 ADD PUSH1 0x40 ADD SWAP3 SWAP2 POP POP JUMP INVALID LOG2 PUSH5 0x6970667358 0x22 SLT KECCAK256 0xFB PUSH21 0x41E6D26CDC40FDCA30F9598EDC0BFC160A0C1C4813 0xB6 KECCAK256 0xFB PUSH6 0xBA8045FB3164 PUSH20 0x6F6C634300081100330000000000000000000000 "},"methodIdentifiers":{"buyWithETH()":"150d283d","buyWithToken(uint256)":"ac74b42d","claim()":"4e71d92d","getInvestor(address)":"8f35a75e","getInvestorList()":"64cdb69e","lockRatio()":"9c3709ea","owner()":"8da5cb5b","pancakeRouter()":"c21ebd07","presaleRatio()":"580433f3","presaleToken()":"24ffea1a","receivers(uint256)":"bfd772fc","receiversRatio(address)":"cc3a2f05","renounceOwnership()":"715018a6","status()":"200d2ed2","transferOwnership(address)":"f2fde38b","unlock(address)":"2f6c493c","updateRatio(address[],uint16[],uint256)":"dd314832","updateStatus(uint256)":"d61e7201"}},"storageLayout":{"storage":[{"astId":7,"contract":"contracts/Presale.sol:Presale","label":"_owner","offset":0,"slot":"0","type":"t_address"},{"astId":1953,"contract":"contracts/Presale.sol:Presale","label":"receivers","offset":0,"slot":"1","type":"t_array(t_address)dyn_storage"},{"astId":1957,"contract":"contracts/Presale.sol:Presale","label":"receiversRatio","offset":0,"slot":"2","type":"t_mapping(t_address,t_uint16)"},{"astId":1959,"contract":"contracts/Presale.sol:Presale","label":"lockRatio","offset":0,"slot":"3","type":"t_uint16"},{"astId":1961,"contract":"contracts/Presale.sol:Presale","label":"presaleRatio","offset":0,"slot":"4","type":"t_uint256"},{"astId":1964,"contract":"contracts/Presale.sol:Presale","label":"investors","offset":0,"slot":"5","type":"t_struct(Map)1612_storage"},{"astId":1967,"contract":"contracts/Presale.sol:Presale","label":"status","offset":0,"slot":"10","type":"t_enum(Status)1932"},{"astId":1969,"contract":"contracts/Presale.sol:Presale","label":"unlockDate","offset":0,"slot":"11","type":"t_uint256"}],"types":{"t_address":{"encoding":"inplace","label":"address","numberOfBytes":"20"},"t_array(t_address)dyn_storage":{"base":"t_address","encoding":"dynamic_array","label":"address[]","numberOfBytes":"32"},"t_bool":{"encoding":"inplace","label":"bool","numberOfBytes":"1"},"t_enum(Status)1932":{"encoding":"inplace","label":"enum Presale.Status","numberOfBytes":"1"},"t_mapping(t_address,t_bool)":{"encoding":"mapping","key":"t_address","label":"mapping(address => bool)","numberOfBytes":"32","value":"t_bool"},"t_mapping(t_address,t_uint16)":{"encoding":"mapping","key":"t_address","label":"mapping(address => uint16)","numberOfBytes":"32","value":"t_uint16"},"t_mapping(t_address,t_uint256)":{"encoding":"mapping","key":"t_address","label":"mapping(address => uint256)","numberOfBytes":"32","value":"t_uint256"},"t_struct(Map)1612_storage":{"encoding":"inplace","label":"struct IterableMapping.Map","members":[{"astId":1595,"contract":"contracts/Presale.sol:Presale","label":"keys","offset":0,"slot":"0","type":"t_array(t_address)dyn_storage"},{"astId":1599,"contract":"contracts/Presale.sol:Presale","label":"values","offset":0,"slot":"1","type":"t_mapping(t_address,t_uint256)"},{"astId":1603,"contract":"contracts/Presale.sol:Presale","label":"indexOf","offset":0,"slot":"2","type":"t_mapping(t_address,t_uint256)"},{"astId":1607,"contract":"contracts/Presale.sol:Presale","label":"isInvest","offset":0,"slot":"3","type":"t_mapping(t_address,t_bool)"},{"astId":1611,"contract":"contracts/Presale.sol:Presale","label":"isClaimed","offset":0,"slot":"4","type":"t_mapping(t_address,t_bool)"}],"numberOfBytes":"160"},"t_uint16":{"encoding":"inplace","label":"uint16","numberOfBytes":"2"},"t_uint256":{"encoding":"inplace","label":"uint256","numberOfBytes":"32"}}}}}}