{
  "_format": "hh-sol-artifact-1",
  "contractName": "Presale",
  "sourceName": "contracts/Presale.sol",
  "abi": [
    {
      "inputs": [
        {
          "internalType": "address[]",
          "name": "_receivers",
          "type": "address[]"
        },
        {
          "internalType": "uint16[]",
          "name": "_ratios",
          "type": "uint16[]"
        },
        {
          "internalType": "uint256",
          "name": "_presaleRatio",
          "type": "uint256"
        },
        {
          "internalType": "uint256",
          "name": "_unlockDate",
          "type": "uint256"
        }
      ],
      "stateMutability": "nonpayable",
      "type": "constructor"
    },
    {
      "anonymous": false,
      "inputs": [
        {
          "indexed": true,
          "internalType": "address",
          "name": "buyer",
          "type": "address"
        },
        {
          "indexed": false,
          "internalType": "uint256",
          "name": "value",
          "type": "uint256"
        }
      ],
      "name": "Bought",
      "type": "event"
    },
    {
      "anonymous": false,
      "inputs": [
        {
          "indexed": true,
          "internalType": "address",
          "name": "claimer",
          "type": "address"
        },
        {
          "indexed": false,
          "internalType": "uint256",
          "name": "amount",
          "type": "uint256"
        }
      ],
      "name": "Claimed",
      "type": "event"
    },
    {
      "anonymous": false,
      "inputs": [
        {
          "indexed": true,
          "internalType": "address",
          "name": "previousOwner",
          "type": "address"
        },
        {
          "indexed": true,
          "internalType": "address",
          "name": "newOwner",
          "type": "address"
        }
      ],
      "name": "OwnershipTransferred",
      "type": "event"
    },
    {
      "anonymous": false,
      "inputs": [
        {
          "indexed": false,
          "internalType": "address[]",
          "name": "receivers",
          "type": "address[]"
        },
        {
          "indexed": false,
          "internalType": "uint16[]",
          "name": "ratios",
          "type": "uint16[]"
        },
        {
          "indexed": false,
          "internalType": "uint256",
          "name": "presaleRatio",
          "type": "uint256"
        }
      ],
      "name": "RatioUpdated",
      "type": "event"
    },
    {
      "anonymous": false,
      "inputs": [
        {
          "indexed": true,
          "internalType": "uint256",
          "name": "oldStatus",
          "type": "uint256"
        },
        {
          "indexed": true,
          "internalType": "uint256",
          "name": "newStatus",
          "type": "uint256"
        }
      ],
      "name": "StatusUpdated",
      "type": "event"
    },
    {
      "inputs": [],
      "name": "buyWithETH",
      "outputs": [],
      "stateMutability": "payable",
      "type": "function"
    },
    {
      "inputs": [
        {
          "internalType": "uint256",
          "name": "_amount",
          "type": "uint256"
        }
      ],
      "name": "buyWithToken",
      "outputs": [],
      "stateMutability": "nonpayable",
      "type": "function"
    },
    {
      "inputs": [],
      "name": "claim",
      "outputs": [],
      "stateMutability": "nonpayable",
      "type": "function"
    },
    {
      "inputs": [
        {
          "internalType": "address",
          "name": "_investor",
          "type": "address"
        }
      ],
      "name": "getInvestor",
      "outputs": [
        {
          "internalType": "uint256",
          "name": "value",
          "type": "uint256"
        },
        {
          "internalType": "bool",
          "name": "isInvest",
          "type": "bool"
        },
        {
          "internalType": "bool",
          "name": "isClaimed",
          "type": "bool"
        }
      ],
      "stateMutability": "view",
      "type": "function"
    },
    {
      "inputs": [],
      "name": "getInvestorList",
      "outputs": [
        {
          "internalType": "address[]",
          "name": "",
          "type": "address[]"
        }
      ],
      "stateMutability": "view",
      "type": "function"
    },
    {
      "inputs": [],
      "name": "lockRatio",
      "outputs": [
        {
          "internalType": "uint16",
          "name": "",
          "type": "uint16"
        }
      ],
      "stateMutability": "view",
      "type": "function"
    },
    {
      "inputs": [],
      "name": "owner",
      "outputs": [
        {
          "internalType": "address",
          "name": "",
          "type": "address"
        }
      ],
      "stateMutability": "view",
      "type": "function"
    },
    {
      "inputs": [],
      "name": "pancakeRouter",
      "outputs": [
        {
          "internalType": "contract IPancakeRouter02",
          "name": "",
          "type": "address"
        }
      ],
      "stateMutability": "view",
      "type": "function"
    },
    {
      "inputs": [],
      "name": "presaleRatio",
      "outputs": [
        {
          "internalType": "uint256",
          "name": "",
          "type": "uint256"
        }
      ],
      "stateMutability": "view",
      "type": "function"
    },
    {
      "inputs": [],
      "name": "presaleToken",
      "outputs": [
        {
          "internalType": "address",
          "name": "",
          "type": "address"
        }
      ],
      "stateMutability": "view",
      "type": "function"
    },
    {
      "inputs": [
        {
          "internalType": "uint256",
          "name": "",
          "type": "uint256"
        }
      ],
      "name": "receivers",
      "outputs": [
        {
          "internalType": "address",
          "name": "",
          "type": "address"
        }
      ],
      "stateMutability": "view",
      "type": "function"
    },
    {
      "inputs": [
        {
          "internalType": "address",
          "name": "",
          "type": "address"
        }
      ],
      "name": "receiversRatio",
      "outputs": [
        {
          "internalType": "uint16",
          "name": "",
          "type": "uint16"
        }
      ],
      "stateMutability": "view",
      "type": "function"
    },
    {
      "inputs": [],
      "name": "renounceOwnership",
      "outputs": [],
      "stateMutability": "nonpayable",
      "type": "function"
    },
    {
      "inputs": [],
      "name": "status",
      "outputs": [
        {
          "internalType": "enum Presale.Status",
          "name": "",
          "type": "uint8"
        }
      ],
      "stateMutability": "view",
      "type": "function"
    },
    {
      "inputs": [
        {
          "internalType": "address",
          "name": "newOwner",
          "type": "address"
        }
      ],
      "name": "transferOwnership",
      "outputs": [],
      "stateMutability": "nonpayable",
      "type": "function"
    },
    {
      "inputs": [
        {
          "internalType": "address",
          "name": "to",
          "type": "address"
        }
      ],
      "name": "unlock",
      "outputs": [],
      "stateMutability": "nonpayable",
      "type": "function"
    },
    {
      "inputs": [
        {
          "internalType": "address[]",
          "name": "_receivers",
          "type": "address[]"
        },
        {
          "internalType": "uint16[]",
          "name": "_ratios",
          "type": "uint16[]"
        },
        {
          "internalType": "uint256",
          "name": "_presaleRatio",
          "type": "uint256"
        }
      ],
      "name": "updateRatio",
      "outputs": [],
      "stateMutability": "nonpayable",
      "type": "function"
    },
    {
      "inputs": [
        {
          "internalType": "uint256",
          "name": "_status",
          "type": "uint256"
        }
      ],
      "name": "updateStatus",
      "outputs": [],
      "stateMutability": "nonpayable",
      "type": "function"
    }
  ],
  "bytecode": "0x60806040523480156200001157600080fd5b50604051620022ba380380620022ba833981016040819052620000349162000416565b6200003f3362000251565b8251845114620000a05760405162461bcd60e51b815260206004820152602160248201527f6e6f742073616d6520726563656976657220616e6420726174696f20636f756e6044820152601d60fa1b60648201526084015b60405180910390fd5b60008211620000f25760405162461bcd60e51b815260206004820152601e60248201527f526174696f2073686f756c642062652067726561746572207468616e20300000604482015260640162000097565b835162000107906001906020870190620002a1565b506000805b8551811015620001cf578481815181106200012b576200012b62000504565b6020026020010151600260008884815181106200014c576200014c62000504565b60200260200101516001600160a01b03166001600160a01b0316815260200190815260200160002060006101000a81548161ffff021916908361ffff160217905550848181518110620001a357620001a362000504565b602002602001015182620001b8919062000530565b915080620001c68162000555565b9150506200010c565b50620001de816103e862000571565b6003805461ffff191661ffff929092169190911790556004839055600a805460ff19169055600b8290556040517fb8ffa35fabf870464b1f28ac36f392a134db3fb2c6e2ee2f022c5a49e242bac0906200023e908790879087906200058f565b60405180910390a1505050505062000624565b600080546001600160a01b038381166001600160a01b0319831681178455604051919092169283917f8be0079c531659141344cd1fd0a4f28419497f9722a3daafe3b4186f6b6457e09190a35050565b828054828255906000526020600020908101928215620002f9579160200282015b82811115620002f957825182546001600160a01b0319166001600160a01b03909116178255602090920191600190910190620002c2565b50620003079291506200030b565b5090565b5b808211156200030757600081556001016200030c565b634e487b7160e01b600052604160045260246000fd5b604051601f8201601f191681016001600160401b038111828210171562000363576200036362000322565b604052919050565b60006001600160401b0382111562000387576200038762000322565b5060051b60200190565b600082601f830112620003a357600080fd5b81516020620003bc620003b6836200036b565b62000338565b82815260059290921b84018101918181019086841115620003dc57600080fd5b8286015b848110156200040b57805161ffff81168114620003fd5760008081fd5b8352918301918301620003e0565b509695505050505050565b600080600080608085870312156200042d57600080fd5b84516001600160401b03808211156200044557600080fd5b818701915087601f8301126200045a57600080fd5b815160206200046d620003b6836200036b565b82815260059290921b8401810191818101908b8411156200048d57600080fd5b948201945b83861015620004c45785516001600160a01b0381168114620004b45760008081fd5b8252948201949082019062000492565b918a0151919850909350505080821115620004de57600080fd5b50620004ed8782880162000391565b604087015160609097015195989097509350505050565b634e487b7160e01b600052603260045260246000fd5b634e487b7160e01b600052601160045260246000fd5b61ffff8181168382160190808211156200054e576200054e6200051a565b5092915050565b6000600182016200056a576200056a6200051a565b5060010190565b61ffff8281168282160390808211156200054e576200054e6200051a565b606080825284519082018190526000906020906080840190828801845b82811015620005d35781516001600160a01b031684529284019290840190600101620005ac565b5050508381038285015285518082528683019183019060005b818110156200060e57835161ffff1683529284019291840191600101620005ec565b5050809350505050826040830152949350505050565b611c8680620006346000396000f3fe6080604052600436106100d95760003560e01c8063150d283d146100de578063200d2ed2146100e857806324ffea1a146101185780632f6c493c1461014d5780634e71d92d1461016d578063580433f31461018257806364cdb69e146101a6578063715018a6146101c85780638da5cb5b146101dd5780638f35a75e146101f25780639c3709ea1461022f578063ac74b42d1461025d578063bfd772fc1461027d578063c21ebd071461029d578063cc3a2f05146102c5578063d61e7201146102f6578063dd31483214610316578063f2fde38b14610336575b600080fd5b6100e6610356565b005b3480156100f457600080fd5b50600a546101029060ff1681565b60405161010f91906115e3565b60405180910390f35b34801561012457600080fd5b5061014073dac17f958d2ee523a2206206994597c13d831ec781565b60405161010f919061160b565b34801561015957600080fd5b506100e6610168366004611634565b6106f3565b34801561017957600080fd5b506100e661087c565b34801561018e57600080fd5b5061019860045481565b60405190815260200161010f565b3480156101b257600080fd5b506101bb6109db565b60405161010f919061169c565b3480156101d457600080fd5b506100e66109ec565b3480156101e957600080fd5b50610140610a00565b3480156101fe57600080fd5b5061021261020d366004611634565b610a0f565b60408051938452911515602084015215159082015260600161010f565b34801561023b57600080fd5b5060035461024a9061ffff1681565b60405161ffff909116815260200161010f565b34801561026957600080fd5b506100e66102783660046116af565b610a2b565b34801561028957600080fd5b506101406102983660046116af565b610bc0565b3480156102a957600080fd5b50610140739ac64cc6e4415144c455bd8e4837fea55603e5c381565b3480156102d157600080fd5b5061024a6102e0366004611634565b60026020526000908152604090205461ffff1681565b34801561030257600080fd5b506100e66103113660046116af565b610bea565b34801561032257600080fd5b506100e66103313660046117ad565b610cce565b34801561034257600080fd5b506100e6610351366004611634565b610e71565b6001600a5460ff16600381111561036f5761036f6115cd565b146103955760405162461bcd60e51b815260040161038c90611877565b60405180910390fd5b600034116103a257600080fd5b604080516002808252606082018352600092602083019080368337019050509050739ac64cc6e4415144c455bd8e4837fea55603e5c36001600160a01b031663ad5c46486040518163ffffffff1660e01b8152600401602060405180830381865afa158015610415573d6000803e3d6000fd5b505050506040513d601f19601f820116820180604052508101906104399190611899565b8160008151811061044c5761044c6118b6565b60200260200101906001600160a01b031690816001600160a01b03168152505073dac17f958d2ee523a2206206994597c13d831ec781600181518110610494576104946118b6565b6001600160a01b039092166020928302919091019091015260405163d06ca61f60e01b8152600090739ac64cc6e4415144c455bd8e4837fea55603e5c39063d06ca61f906104e890349086906004016118cc565b600060405180830381865afa158015610505573d6000803e3d6000fd5b505050506040513d6000823e601f3d908101601f1916820160405261052d91908101906118e5565b905060005b6001548110156106615760006002600060018481548110610555576105556118b6565b60009182526020808320909101546001600160a01b0316835282019290925260400190205461ffff16111561064f57600060018281548110610599576105996118b6565b6000918252602082200154600180546001600160a01b03909216926103e89260029290879081106105cc576105cc6118b6565b60009182526020808320909101546001600160a01b031683528201929092526040019020546105ff9061ffff1634611980565b610609919061199d565b604051600081818185875af1925050503d8060008114610645576040519150601f19603f3d011682016040523d82523d6000602084013e61064a565b606091505b505050505b80610659816119bf565b915050610532565b506106923382600181518110610679576106796118b6565b60200260200101516005610eea9092919063ffffffff16565b336001600160a01b03167fc55650ccda1011e1cdc769b1fbf546ebb8c97800b6072b49e06cd560305b1d67826001815181106106d0576106d06118b6565b60200260200101516040516106e791815260200190565b60405180910390a25050565b6106fb610fcf565b42600b541061074b5760405162461bcd60e51b815260206004820152601c60248201527b4c6f636b20706572696f64206973206e6f74206f766572207965742160201b604482015260640161038c565b6040516370a0823160e01b81526107e590829073dac17f958d2ee523a2206206994597c13d831ec7906370a082319061078890309060040161160b565b602060405180830381865afa1580156107a5573d6000803e3d6000fd5b505050506040513d601f19601f820116820180604052508101906107c991906119d8565b73dac17f958d2ee523a2206206994597c13d831ec7919061102e565b6000816001600160a01b03164760405160006040518083038185875af1925050503d8060008114610832576040519150601f19603f3d011682016040523d82523d6000602084013e610837565b606091505b50509050806108785760405162461bcd60e51b815260206004820152600d60248201526c1499599d5b990811985a5b1959609a1b604482015260640161038c565b5050565b6003600a5460ff166003811115610895576108956115cd565b146108d25760405162461bcd60e51b815260206004820152600d60248201526c6e6f7420636c61696d61626c6560981b604482015260640161038c565b60006108df600533611091565b50509050600073dac17f958d2ee523a2206206994597c13d831ec76001600160a01b031663313ce5676040518163ffffffff1660e01b8152600401602060405180830381865afa158015610937573d6000803e3d6000fd5b505050506040513d601f19601f8201168201806040525081019061095b91906119f1565b61096690600a611af8565b6004546109739084611980565b61097d919061199d565b905061099e73dac17f958d2ee523a2206206994597c13d831ec7338361102e565b6109a96005336110d2565b60405181815233907fd8138f8a3f377c5259ca548e70e4c2de94f129f5a11036a15b69513cba2b426a906020016106e7565b60606109e760056111fd565b905090565b6109f4610fcf565b6109fe6000611263565b565b6000546001600160a01b031690565b60008080610a1e600585611091565b9196909550909350915050565b6001600a5460ff166003811115610a4457610a446115cd565b14610a615760405162461bcd60e51b815260040161038c90611877565b60008111610a6e57600080fd5b610a8e73dac17f958d2ee523a2206206994597c13d831ec73330846112b3565b60005b600154811015610b7b5760006002600060018481548110610ab457610ab46118b6565b60009182526020808320909101546001600160a01b0316835282019290925260400190205461ffff161115610b6957610b6960018281548110610af957610af96118b6565b6000918252602082200154600180546001600160a01b03909216926103e8926002929087908110610b2c57610b2c6118b6565b60009182526020808320909101546001600160a01b03168352820192909252604001902054610b5f9061ffff1686611980565b6107c9919061199d565b80610b73816119bf565b915050610a91565b50610b8860053383610eea565b60405181815233907fc55650ccda1011e1cdc769b1fbf546ebb8c97800b6072b49e06cd560305b1d679060200160405180910390a250565b60018181548110610bd057600080fd5b6000918252602090912001546001600160a01b0316905081565b610bf2610fcf565b600a5460ff166003811115610c0957610c096115cd565b81118015610c175750600481105b610c565760405162461bcd60e51b815260206004820152601060248201526f696e636f72726563742073746174757360801b604482015260640161038c565b600a54819060ff166003811115610c6f57610c6f6115cd565b6040517f150b944d2f668fb8c44fa57a4dd1c95f72d46a1efea6a92a497a002cf491f47b90600090a3806003811115610caa57610caa6115cd565b600a805460ff19166001836003811115610cc657610cc66115cd565b021790555050565b610cd6610fcf565b8151835114610d315760405162461bcd60e51b815260206004820152602160248201527f6e6f742073616d6520726563656976657220616e6420726174696f20636f756e6044820152601d60fa1b606482015260840161038c565b8251610d44906001906020860190611553565b506000805b8451811015610dfd57838181518110610d6457610d646118b6565b602002602001015160026000878481518110610d8257610d826118b6565b60200260200101516001600160a01b03166001600160a01b0316815260200190815260200160002060006101000a81548161ffff021916908361ffff160217905550838181518110610dd657610dd66118b6565b602002602001015182610de99190611b07565b915080610df5816119bf565b915050610d49565b50610e0a816103e8611b29565b6003805461ffff191661ffff929092169190911790556004829055600a805460ff191690556040517fb8ffa35fabf870464b1f28ac36f392a134db3fb2c6e2ee2f022c5a49e242bac090610e6390869086908690611b44565b60405180910390a150505050565b610e79610fcf565b6001600160a01b038116610ede5760405162461bcd60e51b815260206004820152602660248201527f4f776e61626c653a206e6577206f776e657220697320746865207a65726f206160448201526564647265737360d01b606482015260840161038c565b610ee781611263565b50565b6001600160a01b038216600090815260038401602052604090205460ff1615610f42576001600160a01b038216600090815260018401602052604081208054839290610f37908490611ba8565b90915550610fca9050565b6001600160a01b03821660009081526003840160209081526040808320805460ff19166001908117909155860190915281208054839290610f84908490611ba8565b909155505082546001600160a01b038316600081815260028601602090815260408220849055600184018755868252902090910180546001600160a01b03191690911790555b505050565b33610fd8610a00565b6001600160a01b0316146109fe5760405162461bcd60e51b815260206004820181905260248201527f4f776e61626c653a2063616c6c6572206973206e6f7420746865206f776e6572604482015260640161038c565b6040516001600160a01b038316602482015260448101829052610fca90849063a9059cbb60e01b906064015b60408051601f198184030181529190526020810180516001600160e01b03166001600160e01b0319909316929092179091526112f1565b6001600160a01b0316600090815260018201602090815260408083205460038501835281842054600490950190925290912054909260ff9283169290911690565b6001600160a01b038116600090815260038301602052604090205460ff166111285760405162461bcd60e51b81526020600482015260096024820152681b9bc81a5b9d995cdd60ba1b604482015260640161038c565b6001600160a01b038116600090815260048301602052604090205460ff16156111855760405162461bcd60e51b815260206004820152600f60248201526e185b1c9958591e4818db185a5b5959608a1b604482015260640161038c565b6001600160a01b03811660009081526001830160205260409020546111d65760405162461bcd60e51b8152602060048201526007602482015266076616c75653e360cc1b604482015260640161038c565b6001600160a01b03166000908152600490910160205260409020805460ff19166001179055565b60608160000180548060200260200160405190810160405280929190818152602001828054801561125757602002820191906000526020600020905b81546001600160a01b03168152600190910190602001808311611239575b50505050509050919050565b600080546001600160a01b038381166001600160a01b0319831681178455604051919092169283917f8be0079c531659141344cd1fd0a4f28419497f9722a3daafe3b4186f6b6457e09190a35050565b6040516001600160a01b03808516602483015283166044820152606481018290526112eb9085906323b872dd60e01b9060840161105a565b50505050565b6000611346826040518060400160405280602081526020017f5361666545524332303a206c6f772d6c6576656c2063616c6c206661696c6564815250856001600160a01b03166113c39092919063ffffffff16565b805190915015610fca57808060200190518101906113649190611bbb565b610fca5760405162461bcd60e51b815260206004820152602a60248201527f5361666545524332303a204552433230206f7065726174696f6e20646964206e6044820152691bdd081cdd58d8d9595960b21b606482015260840161038c565b60606113d284846000856113da565b949350505050565b60608247101561143b5760405162461bcd60e51b815260206004820152602660248201527f416464726573733a20696e73756666696369656e742062616c616e636520666f6044820152651c8818d85b1b60d21b606482015260840161038c565b600080866001600160a01b031685876040516114579190611c01565b60006040518083038185875af1925050503d8060008114611494576040519150601f19603f3d011682016040523d82523d6000602084013e611499565b606091505b50915091506114aa878383876114b5565b979650505050505050565b6060831561152457825160000361151d576001600160a01b0385163b61151d5760405162461bcd60e51b815260206004820152601d60248201527f416464726573733a2063616c6c20746f206e6f6e2d636f6e7472616374000000604482015260640161038c565b50816113d2565b6113d283838151156115395781518083602001fd5b8060405162461bcd60e51b815260040161038c9190611c1d565b8280548282559060005260206000209081019282156115a8579160200282015b828111156115a857825182546001600160a01b0319166001600160a01b03909116178255602090920191600190910190611573565b506115b49291506115b8565b5090565b5b808211156115b457600081556001016115b9565b634e487b7160e01b600052602160045260246000fd5b602081016004831061160557634e487b7160e01b600052602160045260246000fd5b91905290565b6001600160a01b0391909116815260200190565b6001600160a01b0381168114610ee757600080fd5b60006020828403121561164657600080fd5b81356116518161161f565b9392505050565b600081518084526020808501945080840160005b838110156116915781516001600160a01b03168752958201959082019060010161166c565b509495945050505050565b6020815260006116516020830184611658565b6000602082840312156116c157600080fd5b5035919050565b634e487b7160e01b600052604160045260246000fd5b604051601f8201601f191681016001600160401b0381118282101715611706576117066116c8565b604052919050565b60006001600160401b03821115611727576117276116c8565b5060051b60200190565b600082601f83011261174257600080fd5b813560206117576117528361170e565b6116de565b82815260059290921b8401810191818101908684111561177657600080fd5b8286015b848110156117a257803561ffff811681146117955760008081fd5b835291830191830161177a565b509695505050505050565b6000806000606084860312156117c257600080fd5b83356001600160401b03808211156117d957600080fd5b818601915086601f8301126117ed57600080fd5b813560206117fd6117528361170e565b82815260059290921b8401810191818101908a84111561181c57600080fd5b948201945b838610156118435785356118348161161f565b82529482019490820190611821565b9750508701359250508082111561185957600080fd5b5061186686828701611731565b925050604084013590509250925092565b6020808252600890820152676e6f74206c69766560c01b604082015260600190565b6000602082840312156118ab57600080fd5b81516116518161161f565b634e487b7160e01b600052603260045260246000fd5b8281526040602082015260006113d26040830184611658565b600060208083850312156118f857600080fd5b82516001600160401b0381111561190e57600080fd5b8301601f8101851361191f57600080fd5b805161192d6117528261170e565b81815260059190911b8201830190838101908783111561194c57600080fd5b928401925b828410156114aa57835182529284019290840190611951565b634e487b7160e01b600052601160045260246000fd5b80820281158282048414176119975761199761196a565b92915050565b6000826119ba57634e487b7160e01b600052601260045260246000fd5b500490565b6000600182016119d1576119d161196a565b5060010190565b6000602082840312156119ea57600080fd5b5051919050565b600060208284031215611a0357600080fd5b815160ff8116811461165157600080fd5b600181815b80851115611a4f578160001904821115611a3557611a3561196a565b80851615611a4257918102915b93841c9390800290611a19565b509250929050565b600082611a6657506001611997565b81611a7357506000611997565b8160018114611a895760028114611a9357611aaf565b6001915050611997565b60ff841115611aa457611aa461196a565b50506001821b611997565b5060208310610133831016604e8410600b8410161715611ad2575081810a611997565b611adc8383611a14565b8060001904821115611af057611af061196a565b029392505050565b600061165160ff841683611a57565b61ffff818116838216019080821115611b2257611b2261196a565b5092915050565b61ffff828116828216039080821115611b2257611b2261196a565b606081526000611b576060830186611658565b82810360208481019190915285518083528682019282019060005b81811015611b9257845161ffff1683529383019391830191600101611b72565b5050809350505050826040830152949350505050565b808201808211156119975761199761196a565b600060208284031215611bcd57600080fd5b8151801515811461165157600080fd5b60005b83811015611bf8578181015183820152602001611be0565b50506000910152565b60008251611c13818460208701611bdd565b9190910192915050565b6020815260008251806020840152611c3c816040850160208701611bdd565b601f01601f1916919091016040019291505056fea2646970667358221220fb7441e6d26cdc40fdca30f9598edc0bfc160a0c1c4813b620fb65ba8045fb3164736f6c63430008110033",
  "linkReferences": {},
  "deployedLinkReferences": {}
}